:020000040800F2
:1000000000400020011D0008FD0D0008030E00083F
:100010002D0E0008330E0008390E0008511D00088F
:100020000000000000000000000000003F0E00087B
:100030004D0E0008000000005B0E0008690E00086D
:10004000511D0008511D0008511D0008511D0008D8
:10005000511D0008511D0008511D0008511D0008C8
:10006000511D0008511D0008511D0008511D0008B8
:10007000511D0008511D0008511D0008511D0008A8
:10008000511D0008511D0008511D0008511D000898
:10009000511D0008511D0008511D0008511D000888
:1000A000511D0008511D0008511D0008511D000878
:1000B000511D0008511D0008511D0008511D000868
:1000C000511D0008511D0008511D0008511D000858
:1000D000511D0008511D0008511D0008511D000848
:1000E000511D0008511D0008511D0008511D000838
:1000F000511D0008511D0008511D0008511D000828
:10010000511D0008511D0008511D0008511D000817
:10011000511D0008511D0008511D0008511D000807
:10012000511D0008511D0008511D0008511D0008F7
:10013000511D0008511D0008511D0008511D0008E7
:10014000511D0008750E0008511D0008511D0008C2
:10015000511D0008511D0008511D0008511D0008C7
:10016000511D0008511D0008511D0008511D0008B7
:10017000511D0008511D0008511D0008511D0008A7
:10018000511D0008511D0008511D0008511D000897
:10019000511D0008511D0008511D0008511D000887
:1001A000511D0008511D0008511D0008511D000877
:1001B000511D0008511D0008511D0008511D000867
:1001C000511D0008511D0008511D0008511D000857
:1001D000511D0008511D0008511D0008511D000847
:1001E000511D0008511D0008511D0008511D000837
:1001F000511D0008511D0008511D0008511D000827
:10020000511D0008511D0008511D0008511D000816
:10021000511D0008511D0008511D0008511D000806
:10022000511D0008511D0008511D0008511D0008F6
:04023000511D000854
:1002340010B5054C237833B9044B13B1044800E0DE
:1002440000BF0123237010BDF8010020000000004E
:10025400488D000808B5034B1BB10349034800E06F
:1002640000BF08BD00000000FC010020488D00080C
:10027400034613F8012B002AFBD1181A01387047E2
:1002840053B94AB9002908BF00281CBF4FF0FF31F9
:100294004FF0FF3000F082B9ADF1080C6DE904CEE7
:1002A40000F006F8DDF804E0DDE9022304B070474D
:1002B4002DE9F04F099D04460F46002B48D18A4290
:1002C400944661D9B2FA82F343B1C3F120019F404D
:1002D40002FA03FC9C4020FA01F10F434FEA1C414F
:1002E4001FFA8CFE220CB7FBF1F601FB167706FB16
:1002F4000EF042EA0742904208D91CEB020206F1D2
:10030400FF3702D2904200F237813E46121AA4B25D
:10031400B2FBF1F001FB102200FB0EFE44EA0244A2
:10032400A64508D91CEB040400F1FF3202D2A6450D
:1003340000F21C81104640EA0640A4EB0E0400269D
:100344001DB1DC400023C5E900433146BDE8F08F10
:100354008B4209D9002D00F0FD800026C5E900017B
:1003640030463146BDE8F08FB3FA83F6002E4BD108
:100374008B42C0F0F280824240F2EF803046002D82
:10038400E3D0C5E90047E0E702B9FFDEB2FA82F341
:10039400002B40F09D80891A4FEA124E97B2012635
:1003A400200CB1FBFEF20EFB121140EA014107FBE7
:1003B40002F088420FD91CEB010102F1FF382CBF77
:1003C4004FF001094FF00009884203D9B9F1000F39
:1003D40000F0CF804246091AA4B2B1FBFEF00EFB36
:1003E400101100FB07F744EA0144A74208D91CEBAB
:1003F400040400F1FF3102D2A74200F2B48008469F
:10040400E41B40EA02409BE7C6F12007B34001FA2F
:1004140006F422FA07FCF940B2404CEA030C20FA35
:1004240007F34FEA1C491C431FFA8CFE00FA06F33B
:10043400200CB1FBF9F809FB181140EA014108FB53
:100444000EF088420FD91CEB010108F1FF3A2CBFD2
:100454004FF0010B4FF0000B884203D9BBF1000FA2
:1004640000F08D80D046091AA4B2B1FBF9F009FB63
:10047400101100FB0EFE44EA01418E4507D91CEB26
:10048400010100F1FF3401D28E457FD8204640EAB5
:100494000840A1EB0E01A0FB029841454C46C6461C
:1004A40002D306D14B4504D20138B9EB020468EB00
:1004B4000C0E002D70D01A1B61EB0E0122FA06F30C
:1004C40001FA07F7F14000261F43C5E900713CE734
:1004D40002FA03FCC3F1200001FA03F221FA00F648
:1004E4004FEA1C4E24FA00F11FFA8CF79C4011438A
:1004F400B6FBFEF00A0C0EFB106642EA064200FB55
:1005040007F696420ED91CEB020200F1FF382CBF0D
:100514004FF001094FF00009964202D9B9F1000FDA
:1005240031D04046921B89B2B2FBFEF60EFB162276
:1005340041EA024106FB07F28A4207D91CEB01019A
:1005440006F1FF3801D28A4223D84646891A46EA80
:10055400004625E72E462846F7E6841A61EB030396
:1005640001201F460BE76444023849E7644402381B
:10057400E1E6023A61442EE7023E6244C6E6A8F18F
:10058400020861446FE702386244CBE702386144F1
:100594007DE7023E6144D9E72E46D6E6704700BFA8
:1005A40080B500AF01224FF48051084802F05CFA94
:1005B40001224FF48071054802F056FA01224FF4EB
:1005C4000051024802F050FA00BF80BD0010024200
:1005D40080B58CB000AF07F11C0300221A605A608A
:1005E4009A60DA601A614D4BD3F88C304B4A43F071
:1005F4000103C2F88C30494BD3F88C3003F001036B
:10060400BB61BB69454BD3F88C30444A43F00203C9
:10061400C2F88C30414BD3F88C3003F002037B6179
:100624007B693E4BD3F88C303C4A43F00403C2F858
:100634008C303A4BD3F88C3003F004033B613B69B4
:10064400364BD3F88C30354A43F00803C2F88C306B
:10065400324BD3F88C3003F00803FB60FB682F4B5C
:10066400D3F88C302D4A43F01003C2F88C302B4B56
:10067400D3F88C3003F01003BB60BB68274BD3F86E
:100684008C30264A43F02003C2F88C30234BD3F835
:100694008C3003F020037B607B68204BD3F88C30D4
:1006A4001E4A43F04003C2F88C301C4BD3F88C3004
:1006B40003F040033B603B684FF48053FB6101232C
:1006C4003B6201237B620023BB6207F11C031946D2
:1006D400134801F0F1FF4FF40053FB6101233B6227
:1006E40001237B620023BB6207F11C0319460C48FB
:1006F40001F0E2FF4FF48073FB6101233B620123AD
:100704007B620023BB6207F11C031946044801F015
:10071400D3FF00BF3037BD4680BD00BF000C02468A
:100724000010024280B400AFBFF34F8F00BF064BEE
:10073400DB6803F4E0620449044B1343CB60BFF36A
:100744004F8F00BF00BFFDE700ED00E00400FA0595
:1007540080B400AF054B1B69044A43F00053136196
:1007640000BFBD465DF8047B704700BF0008024629
:1007740080B400AF054B1B69044A43F08043136106
:1007840000BFBD465DF8047B704700BF0008024609
:1007940080B586B000AF78607B6804331B687B61EA
:1007A4007B693B617B681B68FB60FB6883F308889B
:1007B40000BF3B69984700BF1837BD4680BD0000A5
:1007C40080B500AF224B234A1A60214B4FF46122BB
:1007D4005A601F4B00229A601D4B0022DA601C4BAA
:1007E40000221A611A4B0C225A61194B00229A6199
:1007F400174B0022DA61164B00221A62144B0022B6
:100804005A62134B00229A62114806F0E9F9034632
:10081400002B01D000F0A6F900210D4808F09BF947
:100824000346002B01D000F09DF90021084808F090
:10083400D0F90346002B01D000F094F9044808F0E5
:1008440051F90346002B01D000F08CF900BF80BDA4
:10085400140200200050004080B500AF01F078FA87
:1008640000BF80BD80B582B000AFFFF7F5FF00F098
:10087400CFF800F033F9FFF7ABFEFFF791FE00F07D
:1008840035F9FFF79DFF514800F0A2F94F4B1B6863
:100894001A684E4B1B6842F020021A6040F2054170
:1008A4004B4800F01DFE4B4800F064FE4A4800F03F
:1008B40061FE4A4800F05EFE494800F05BFEFFF727
:1008C4007FFF424800F084F9404B1B681A683F4B95
:1008D4001B6842F020021A6040F205413C4800F0D7
:1008E400FFFD404B00221A703F4B01221A60012386
:1008F4003B600023FB7134E0FA79FB793B49895C66
:100904003B4AD154FA79FB793A49895C384A134411
:100914000A461A74FA79FB793749895C344A1344D4
:100924000A4683F82A20FA79FB793449895C304AEB
:1009340013440A4683F83A20FA79FB793049895CF2
:100944002B4A13440A4683F85620FA79FB792D4939
:10095400895C274A13440A4683F86620FB790133ED
:10096400FB71FB790F2BC7D93B68012B03D03B6884
:10097400022B1DD024E0012000F08EFE01F034F89B
:100984000346002B12D1032000F000FF002000F0EA
:1009940017FB002000F0FAFE002000F09FFB01206E
:1009A40000F0F4FE1848FFF7F3FE09E0FFF7BAFE83
:1009B400164800F0DFFD4FF00160FFF7E9FE00BFCD
:1009C400002318460837BD4680BD00BF140200202E
:1009D400AC0200204800002088000020B80000205D
:1009E400D8000020A9020020A402002084010020D5
:1009F400CC0A0020B401002074010020A4010020CE
:100A040094010020C40100200000020868000020B6
:100A140080B59EB000AF07F118036022002118468C
:100A240008F088F93B4600221A605A609A60DA603E
:100A34001A615A614FF4403002F0AEF80346002BBD
:100A440001D000F08FF802F087F8234BD3F8F03090
:100A5400214A43F01803C2F8F0301623BB61812306
:100A64003B624FF480737B621023BB6201237B6380
:100A74001023BB630023FB6300233B6507F11803CA
:100A8400184602F00BF90346002B01D000F06AF877
:100A94001F233B6000237B600023BB600023FB60BB
:100AA40000233B6100237B613B460421184602F08E
:100AB400CBFF0346002B01D000F054F84FF0E06068
:100AC40005F0EAFE00224FF0E061002003F0AEF9E9
:100AD40000BF7837BD4680BD000C024680B500AF2C
:100AE400FFF746FEFFF734FE00BF80BD80B500AFC0
:100AF400002001F0D1FF0346002B01D000F032F8B2
:100B040001F0EAFF0346002B01D000F02BF800BFF0
:100B140080BD000080B582B000AF78607B681B6840
:100B24000B4A934210D10B4B1B68002B04D11021AC
:100B3400094800F0D5FC04E040F20541074800F004
:100B4400CFFC074B01221A7000BF0837BD4680BD99
:100B540000500040A4020020BC060020AC0200208B
:100B6400A902002080B400AF72B600BFFEE7000007
:100B740080B582B000AF154BD3F89430134A43F0DC
:100B84000403C2F89430114BD3F8943003F00403F7
:100B94007B607B680D4BD3F8A8300C4A43F4801378
:100BA400C2F8A830094BD3F8A83003F480133B6093
:100BB4003B68302001F074F901F09AF9002001F04B
:100BC40083F900BF0837BD4680BD00BF000C024654
:100BD40080B5C0B000AF786007F1EC0300221A6062
:100BE4005A609A60DA601A6107F12003C822002172
:100BF400184608F09FF87B681B68794A934271D1C4
:100C04004FF008024FF00003C7E908230023FB67F5
:100C140007F12003184603F025FB0346002B01D0FF
:100C2400FFF7A0FF6F4BD3F89C306E4A43F40023C8
:100C3400C2F89C306B4BD3F89C3003F40023FB6167
:100C4400FB69684BD3F88C30664A43F00403C2F85E
:100C54008C30644BD3F88C3003F00403BB61BB6964
:100C6400604BD3F88C305F4A43F00103C2F88C30F8
:100C74005C4BD3F88C3003F001037B617B69012367
:100C8400C7F8EC300223C7F8F0300023C7F8F4307B
:100C94000023C7F8F8300823C7F8FC3007F1EC0349
:100CA4001946514801F008FD4FF40063C7F8EC30D1
:100CB4000223C7F8F0300023C7F8F4300023C7F844
:100CC400F8300823C7F8FC3007F1EC03194647480D
:100CD40001F0F2FC00220021402001F008FA40203B
:100CE40001F01FFA7B681B68414A934272D14FF0AE
:100CF40010024FF00003C7E908230023C7F880302F
:100D040007F12003184603F0ADFA0346002B01D087
:100D1400FFF728FF334BD3F89C30324A43F4801357
:100D2400C2F89C302F4BD3F89C3003F480133B6102
:100D34003B692C4BD3F88C302A4A43F00803C2F8A1
:100D44008C30284BD3F88C3003F00803FB60FB682D
:100D5400244BD3F88C30234A43F00403C2F88C307C
:100D6400204BD3F88C3003F00403BB60BB684FF412
:100D74008053C7F8EC300223C7F8F0300023C7F8DB
:100D8400F4300023C7F8F8300823C7F8FC3007F123
:100D9400EC031946154801F08FFC0423C7F8EC3026
:100DA4000223C7F8F0300023C7F8F4300023C7F853
:100DB400F8300823C7F8FC3007F1EC0319460D4856
:100DC40001F07AFC00220021412001F090F9412039
:100DD40001F0A7F900BF07F58077BD4680BD00BFCD
:100DE400004C0040000C024600000242000802428F
:100DF40000500040000C024280B400AFFEE780B413
:100E040083B000AF0023FB7109E0FB79DBB201334F
:100E1400DBB2BB71FB79DBB20133DBB2FB71FB7973
:100E2400DBB2132BF1D9FEE780B400AFFEE780B448
:100E340000AFFEE780B400AFFEE780B400AF00BFB0
:100E4400BD465DF8047B704780B400AF00BFBD466B
:100E54005DF8047B704780B400AF00BFBD465DF809
:100E6400047B704780B500AF00F0D6FF00BF80BDA3
:100E740080B500AF024806F027F800BF80BD00BF70
:100E84001402002080B400AF184BD3F88830174AFE
:100E940043F47003C2F88830154B01221A60144BD6
:100EA4000022DA61124B00221A62114B00225A62AC
:100EB4000F4B1B680E4A23F0A85323F4102313602E
:100EC4000B4B00229A620A4B1B68094A23F48023C5
:100ED4001360074B00221A65044B4FF000629A60BE
:100EE40000BFBD465DF8047B704700BF00ED00E025
:100EF400000C024680B485B000AFF860B9601346B8
:100F0400FB80FB681B68DAB2BB681A70FB680133AC
:100F1400FB60BB680133BB60FB885A1EFA80002B60
:100F240000D0EEE700BF00BF1437BD465DF8047B78
:100F34007047000080B586B000AF786000237B6105
:100F440000233B6101F0D8FD0346002B01D0FFF7DD
:100F540009FE01F0EFF97B6803F5003380339B024F
:100F64007B617B69FB6013E03B690333134A1344E1
:100F74001A467969012001F093F90346002B06D142
:100F84007B6910337B613B6910333B6100E0FEE712
:100F9400FB6803F580637A699A42E5D301F0ECF9C2
:100FA40001F09AFD0346002B01D0FFF7DBFD022080
:100FB40000F052FF00BF1837BD4680BDAC020020D0
:100FC40080B58AB000AF0346FB7100237B6201F059
:100FD40093FD0346002B01D0FFF7C4FD01F0AAF9ED
:100FE400FB79022B34D0022B49DC002B02D0012BDD
:100FF40017D044E00023FB770AE0FA7FFB7F3349F4
:101004008A5C28333B4403F8202CFB7F0133FB77B5
:10101400FB7F0F2BF1D92E4B7B627B6A10333B6233
:1010240030E00023FB770AE0FA7FFB7F29498A5CE2
:1010340028333B4403F8202CFB7F0133FB77FB7FF1
:101044000F2BF1D9224B7B627B6A10333B6219E090
:101054000023FB770AE0FA7FFB7F1F498A5C283371
:101064003B4403F8202CFB7F0133FB77FB7F0F2BE2
:10107400F1D9174B7B627B6A10333B6202E001F0CB
:101084007BF91FE00EE007F108031A46796A012094
:1010940001F006F90346002B03D17B6A10337B620F
:1010A40000E0FEE77A6A3B6A9A42ECD301F064F905
:1010B40001F012FD0346002B01D0FFF753FD02207F
:1010C40000F0CAFE2837BD4680BD00BF8401002061
:1010D40000001E08740100209401002080B5A0B017
:1010E40000AF0346FB710023FB670023BB6701F0DD
:1010F40003FD0346002B01D0FFF734FD01F01AF97C
:10110400FB79022B00F0EF80022B00F36281002BAD
:1011140002D0012B71D05CE1002387F873300EE01C
:1011240097F8732097F87330B6498A5C80333B4450
:1011340003F8742C97F87330013387F8733097F8F9
:1011440073300F2BECD9102387F8733011E097F824
:101154007330A3F1100297F87330AA490A44127C41
:1011640080333B4403F8742C97F87330013387F8C9
:10117400733097F873301F2BE9D9A24B1B6ADBB28B
:1011840087F82C309F4B1B6A1B0ADBB287F82D3083
:101194009C4B1B6A1B0CDBB287F82E30994B1B6AE5
:1011A4001B0EDBB287F82F30964B5B6ADBB287F8F5
:1011B4003030944B5B6A1B0ADBB287F83130914BB9
:1011C4005B6A1B0CDBB287F832308E4B5B6A1B0EFA
:1011D400DBB287F833308B4B1B8DDBB287F83430AE
:1011E400884B1B8D1B0A9BB2DBB287F83530864BCC
:1011F400FB67FB6F30337B67EEE0002387F87330C7
:1012040010E097F8732097F873307E490A4492F8F7
:101214002A2080333B4403F8742C97F8733001334D
:1012240087F8733097F873300F2BEAD9102387F8B7
:10123400733012E097F87330A3F1100297F873300B
:1012440070490A4492F83A2080333B4403F8742CE2
:1012540097F87330013387F8733097F873301F2B86
:10126400E8D9684BDB6CDBB287F82C30654BDB6C60
:101274001B0ADBB287F82D30624BDB6C1B0CDBB234
:1012840087F82E305F4BDB6C1B0EDBB287F82F30F8
:101294005C4B1B6DDBB287F830305A4B1B6D1B0A5D
:1012A400DBB287F83130574B1B6D1B0CDBB287F870
:1012B4003230544B1B6D1B0EDBB287F83330514B6D
:1012C400B3F85430DBB287F834304E4BB3F85430B3
:1012D4001B0A9BB2DBB287F835304C4BFB67FB6FC4
:1012E40030337B6778E0002387F8733010E097F899
:1012F400732097F8733043490A4492F85620803398
:101304003B4403F8742C97F87330013387F8733037
:1013140097F873300F2BEAD9102387F8733012E053
:1013240097F87330A3F1100297F8733035490A44E3
:1013340092F8662080333B4403F8742C97F873309A
:10134400013387F8733097F873301F2BE8D92D4B8E
:101354009B6FDBB287F82C302A4B9B6F1B0ADBB2E6
:1013640087F82D30274B9B6F1B0CDBB287F82E3090
:10137400244B9B6F1B0EDBB287F82F30214BDB6FA6
:10138400DBB287F830301F4BDB6F1B0ADBB287F808
:1013940031301C4BDB6F1B0CDBB287F83230194B3E
:1013A400DB6F1B0EDBB287F83330164BB3F8843097
:1013B400DBB287F83430134BB3F884301B0A9BB28A
:1013C400DBB287F83530114BFB67FB6F10337B675B
:1013D40002E000F0D1FF2CE00023BB6719E007F125
:1013E4000C02BB6F13441A46F96F012000F058FF3A
:1013F4000346002B0CD1FB6F1033FB67BB6F10331C
:10140400BB6706E0CC0A002000201E0800401E082E
:10141400FEE7FA6F7B6F9A42E1D300F0ADFF01F073
:101424005BFB0346002B01D0FFF79CFB022000F07E
:1014340013FD8037BD4680BD80B485B000AF7860B1
:101444000023FB601F4B1B884FF6FF7293420DD0A5
:101454001C4B1B88002B06D01A4B1B889B025B0875
:1014640003F1006304E04FF0016301E04FF0016316
:101474007A68934205D97B6803F178435B0BFB6080
:1014840019E0104B1B884FF6FF7293420DD00D4BA1
:101494001B88002B06D00B4B1B889B025B0803F1B7
:1014A400006304E04FF0016301E04FF001637A68E8
:1014B400D31A5B0BFB60FB6818461437BD465DF816
:1014C400047B7047A007FA0B80B483B000AF786048
:1014D400012318460C37BD465DF8047B70470000B5
:1014E40080B584B000AF78600B467B80FF23FB603F
:1014F4007B881A467968064805F07AFC0346002B77
:1015040001D10023FB60FB6818461037BD4680BD3F
:101514001402002080B582B000AF0346FB71064A76
:10152400FB79137001220449044805F0A9FB00BFAC
:101534000837BD4680BD00BF3801002014020020DA
:1015440080B584B000AF0346FB710023FB60084BF9
:1015540000221A70FB791846FFF7DCFF00BF044B2A
:101564001B78002BFBD0FB6818461037BD4680BDA6
:10157400A802002080B584B000AF78607868FEF7D8
:1015840077FE0346BB730023FB7309E0FB7B7A6899
:1015940013441B781846FFF7D3FFFB7B0133FB731F
:1015A400FA7BBB7B9A42F1D300BF00BF1037BD4624
:1015B40080BD000080B584B000AF78603960786881
:1015C400FEF756FE0346BB733968304BA3FB012379
:1015D400DA0813469B0013445B00CA1AD2B27B6834
:1015E40016333032D2B21A703B68284AA2FB032366
:1015F400D908264BA3FB0123DA0813469B001344A6
:101604005B00CA1AD2B27B6815333032D2B21A7078
:101614003B681F4AA2FB032359091C4BA3FB01236C
:10162400DA0813469B0013445B00CA1AD2B27B68E3
:1016340014333032D2B21A703B68164AA2FB032329
:101644009909124BA3FB0123DA0813469B001344A8
:101654005B00CA1AD2B27B6813333032D2B21A702A
:101664000023FB7309E0FB7B7A6813441B7818465C
:10167400FFF766FFFB7B0133FB73FA7BBB7B9A426C
:10168400F1D300BF00BF1037BD4680BDCDCCCCCC5C
:101694001F85EB51D34D621080B586B000AF034671
:1016A400FB7100237B6100233B610023FB6000236B
:1016B400BB6001F021FA0346002B01D0FFF752FA78
:1016C40000F038FEFB79012B25D12C48FFF7B4FE3E
:1016D40078612B48FFF7B0FE02467B69D31A0133C9
:1016E4003B612648FFF7F0FEF860264B02221A60A1
:1016F400244A7B699360234A3B69D360214AFB688F
:10170400536007F1080319461E4800F00FFF034613
:10171400002B00D0FEE70223FB604FF00160FFF7CF
:101724008BFE78611848FFF787FE02467B69D31A5F
:1017340001333B61134B02221A60124A7B699360A6
:10174400104A3B69D3600F4AFB68536007F10803F2
:1017540019460C4800F0EAFE0346002B00D0FEE7D1
:1017640000F00AFE01F0B8F90346002B01D0FFF7A0
:10177400F9F900BF1837BD4680BD00BF000002085C
:1017840000000E08580B002000001F0880B586B02A
:1017940000AF0346FB7100237B610023FB60002341
:1017A4003B610023BB6001F0A7F90346002B01D085
:1017B400FFF7D8F900F0BEFDFB79032B14D0032BFF
:1017C40019DC002B02D0012B07D014E01C48FFF7D2
:1017D40033FE786102233B610DE01A48FFF72CFECB
:1017E400786102233B6106E01748FFF725FE786124
:1017F40002233B6100BF0123FB60144B02221A60E9
:10180400124A7B699360114AFB68D3600F4A3B69B3
:10181400536007F1080319460C4800F087FE03469D
:10182400002B00D0FEE700F0A7FD01F055F90346B8
:10183400002B01D0FFF796F900BF1837BD4680BDD5
:1018440000201E0800401E0800001E08680B00202F
:1018540080B582B000AF00237B601C4B1B78022B49
:1018640003D0FF237B607B682BE0184B5B781A4620
:10187400164B9B781344FF2B03D0FF237B607B68BC
:101884001FE0124B93F803341B021AB20F4B93F868
:1018940004341BB213437B804FF480610C4800F086
:1018A400F3F903463B80B7F90220B7F900309A42B6
:1018B40006D00848FFF75EFEFF237B607B6800E0EC
:1018C4007B6818460837BD4680BD00BFAC020020C7
:1018D400AF0200200801002080B584B000AF0346A9
:1018E400FB710023FB60084B00221A70FB79184639
:1018F400FFF710FE00BF044B1B78002BFBD0FB68E6
:1019040018461037BD4680BDA802002080B483B0BD
:1019140000AF0023FB800CE0FB880C4AD35C9AB236
:101924000B4B1B8813449AB2094B1A80FB88013372
:10193400FB80FB88B3F5806FEED3054B1B881846FC
:101944000C37BD465DF8047B704700BFBC06002021
:10195400540B002080B483B000AF00237B600023CD
:101964007B8010E07B8803330C4AD25C7B880C4973
:10197400CB5C9A4204D001237B6040F202437B801B
:101984007B8801337B807B88B3F5806FEAD37B68E7
:1019940018460C37BD465DF8047B7047AC02002046
:1019A400BC06002080B485B000AF00237B60002318
:1019B400FB600EE00023BB6005E07B6801337B60C5
:1019C400BB680133BB60BB68632BF6D9FB6801338A
:1019D400FB60FB68632BEDD900BF00BF1437BD4625
:1019E4005DF8047B7047000080B586B000AFFF232C
:1019F4007B610023BB740023FB600023BB600023D6
:101A04007B6000237B8040F205419548FFF768FD29
:101A14007861944B00221A705BE0FF23FB7443202F
:101A2400FFF75AFFFFF7BEFF8E4B1B78012B18D12F
:101A3400FFF70EFF78617B69002B03D1884B1B787D
:101A4400FB740EE01123FB7440F205418448FFF758
:101A540047FD1520FFF740FFFFF7A4FF814B00224D
:101A64001A70FB7C022B02D0FB7C012B26D1BB68B5
:101A74005A1CBA601846FFF75DFA4FF480627A493F
:101A84007A48FFF737FAFFF741FF03467B80FFF7F9
:101A940061FF78617B69002B05D000217448FFF752
:101AA40089FDFF23D7E00123BB746D4B11221A700B
:101AB4006C4B00221A700620FFF70EFF7B6801337F
:101AC4007B607B684EF66022934202D96948FFF737
:101AD40051FDBB7C002BA0D000216748FFF76AFDB5
:101AE400B4E000237B6019E07B6801337B607B6892
:101AF400624A934212D90123FB60594B1B78FB7451
:101B0400FB7C042B03D1574B01221A7006E0594881
:101B1400FFF730FDFF237B617B699CE0514B1B7811
:101B2400002BE1D0FFF794FE78617B69002B02D192
:101B34004B4B1B78FB74FB7C013B172B00F285801D
:101B440001A252F823F000BFAD1B0008B51B00082A
:101B54004F1C0008211C00084F1C00084F1C0008E3
:101B64004F1C00084F1C00084F1C00084F1C0008A5
:101B74004F1C00084F1C00084F1C00084F1C000895
:101B84004F1C00084F1C00084F1C00084F1C000885
:101B94004F1C00084F1C00084F1C00084F1C000875
:101BA4004F1C0008511C00081520FFF795FE4DE05E
:101BB400B868FFF7BFF9BB6803F5003380339B02B5
:101BC4004FF4806228491846FFF794F9FFF79EFE08
:101BD40003461A467B8813447B80BB680133BB6091
:101BE400FFF7B8FE78617B69002B07D0BB68013B27
:101BF40019461F48FFF7DEFCFF232CE0BB68013BBE
:101C040019461D48FFF7D6FC154B11221A70154BC7
:101C140000221A700620FFF75FFE17E00620FFF788
:101C24005BFE1748FFF7A6FCBB68013B9B02154A05
:101C34001362BB68013B134A5362124A7B881385C3
:101C440000237B610123FB6000E000BFFB68002BE5
:101C54003FF447AF7B6918461837BD4680BD00BFC7
:101C6400AC020020A9020020BC06002000000208EB
:101C740024000020F400002000000020A0BB0D0080
:101C840018010020CC0A002080B485B000AF786031
:101C94000B467B800023FB8126E07B88013B7B8015
:101CA4007B685A1C7A601B781B021AB2B7F90E3093
:101CB40053401BB2FB8100237B7312E0B7F90E3053
:101CC400002B08DAFB895B009BB283F4815383F019
:101CD4000103FB8102E0FB895B00FB817B7B013319
:101CE4007B737B7B072BE9D97B88002BD5D1FB89C0
:101CF40018461437BD465DF8047B7047DFF834D0CE
:101D0400002103E00C4B5B58435004310B480C4B4F
:101D140042189A42F6D30B4A02E0002342F8043BED
:101D2400094B9A42F9D3FFF7ADF806F0DFFFFEF74F
:101D340099FDFEE700400020708E0008000000209E
:101D4400F8010020F80100207C0B0020FEE70000D1
:101D540080B500AF114B1B68104A43F480731360C5
:101D6400032000F0B9F902F099F802460C4B1B6A03
:101D740003F00F030B49CB5C22FA03F30A4A136006
:101D84000F2000F013F80346002B01D0012302E0DA
:101D9400FEF7EEFE0023184680BD00BF002002407F
:101DA400000C0246608D00083401002080B582B02A
:101DB40000AF7860154B1B78002B01D1012321E083
:101DC400134B1A68114B1B7819464FF47A73B3FB03
:101DD400F1F3B2FBF3F3184600F0B1F90346002B1C
:101DE40001D001230EE07B680F2B0AD8002279680A
:101DF4004FF0FF3000F07BF9064A7B681360002344
:101E040000E0012318460837BD4680BDD8010020F4
:101E140034010020D401002080B400AF064B1B78AD
:101E24001A46064B1B681344044A136000BFBD46A0
:101E34005DF8047B704700BFD8010020780B0020B8
:101E440080B400AF034B1B681846BD465DF8047BA5
:101E5400704700BF780B002080B584B000AF786075
:101E6400FFF7EEFFB8607B68FB60FB68B3F1FF3FF0
:101E740005D00A4B1B781A46FB681344FB6000BF6D
:101E8400FFF7DEFF0246BB68D31AFA689A42F7D816
:101E940000BF00BF1037BD4680BD00BFD801002081
:101EA40080B483B000AF7860064B1B6823F07002E7
:101EB40004497B6813430B6000BF0C37BD465DF8D3
:101EC400047B70470074004680B483B000AF786030
:101ED400064B1B6823F0020204497B6813430B6022
:101EE40000BF0C37BD465DF8047B704700740046A4
:101EF40080B582B000AF0F4B1B680E4A43F001035C
:101F04001360FFF79DFF786008E0FFF799FF024632
:101F14007B68D31A0A2B01D9032306E0054B1B68FF
:101F240003F00803002BF0D0002318460837BD4601
:101F340080BD00BF0074004680B485B000AF7860F7
:101F44007B6803F00703FB600C4BDB68BB60BA687B
:101F54004FF6FF031340BB60FB681A02BB681343D0
:101F640043F0BF6343F40033BB60044ABB68D360EF
:101F740000BF1437BD465DF8047B704700ED00E0F8
:101F840080B400AF044BDB681B0A03F00703184658
:101F9400BD465DF8047B704700ED00E080B483B07B
:101FA40000AF0346FB7197F90730002B0BDBFB797D
:101FB40003F01F02074997F907305B09012000FA73
:101FC40002F241F8232000BF0C37BD465DF8047BC4
:101FD400704700BF00E100E080B483B000AF034667
:101FE4003960FB7197F90730002B0ADB3B68DAB2E2
:101FF4000C4997F907301201D2B20B4483F800233D
:102004000AE03B68DAB20849FB7903F00F03043BAA
:102014001201D2B20B441A7600BF0C37BD465DF8EC
:10202400047B704700E100E000ED00E080B489B07B
:1020340000AFF860B9607A60FB6803F00703FB61E6
:10204400FB69C3F10703042B28BF0423BB61FB69AD
:102054000433062B02D9FB69033B00E000237B61B8
:102064004FF0FF32BB6902FA03F3DA43BB681A404C
:102074007B699A404FF0FF317B6901FA03F3D9433E
:102084007B680B40134318462437BD465DF8047B38
:102094007047000080B582B000AF78607B68013B78
:1020A400B3F1807F01D301230FE00A4A7B68013B2F
:1020B40053600F214FF0FF30FFF78EFF054B0022D6
:1020C4009A60044B07221A60002318460837BD465D
:1020D40080BD00BF10E000E080B582B000AF786042
:1020E4007868FFF729FF00BF0837BD4680BD80B57B
:1020F40086B000AF0346B9607A60FB73FFF740FF18
:1021040078617A68B9687869FFF790FF024697F9B1
:102114000F3011461846FFF75FFF00BF1837BD4662
:1021240080BD80B582B000AF0346FB7197F90730DC
:102134001846FFF733FF00BF0837BD4680BD80B5A2
:1021440082B000AF78607868FFF7A4FF03461846B2
:102154000837BD4680BD80B584B000AF7860FFF716
:102164006FFEF8607B68002B01D101236BE07B6874
:1021740093F85430DBB2022B08D07B6820229A6596
:102184007B68002283F84C2001235CE07B681B6899
:102194005A697B681B6842F004025A617B68052215
:1021A40083F8542020E0FFF74BFE0246FB68D31A65
:1021B400052B19D97B689B6D43F010027B689A65E7
:1021C4007B68032283F854207B681B6D03F0800333
:1021D400002B03D07B685B6F01221A737B6800229B
:1021E40083F84C2001232EE07B681B681B6903F4F1
:1021F4000053002BD7D07B681B685A697B681B6827
:1022040042F002025A617B68042283F854207B68FE
:102214001B684FF4FE42DA607B68012283F8542085
:102224007B681B6D03F08003002B07D07B685B6F1A
:1022340001221A737B681B6800229A647B6800225F
:1022440083F84C20002318461037BD4680BD80B467
:1022540083B000AF78607B68002B01D1012319E0C3
:102264007B6893F85430DBB2022B04D07B682022C5
:102274009A6501230EE07B68042283F854207B686E
:102284001B685B697A68126843F4005343F00403E3
:102294005361002318460C37BD465DF8047B704734
:1022A40080B586B000AFF860B9607A601F4B1B78C8
:1022B400012B01D1022334E01C4B01221A701B4B69
:1022C40000225A604FF47A7000F070F80346FB75F0
:1022D400FB7D002B21D1154AFB689360144B3B61B5
:1022E400FB6823F00043012B04D17968B86800F03F
:1022F400A3F803E07968B86800F0DAF84FF47A706C
:1023040000F054F80346FB753B691A68FB6823F038
:102314000043DB431A403B691A60044B00221A70E5
:10232400FB7D18461837BD4680BD00BFDC01002088
:102334002820024080B483B000AF0023FB710B4B14
:102344009B6A002B0BDA094B094A9A60074B094A2E
:102354009A60064B9B6A002B01DA0123FB71FB791F
:1023640018460C37BD465DF8047B704700200240D8
:1023740023016745AB89EFCD80B483B000AF01235F
:10238400FB71094B9B6A084A43F000439362064B76
:102394009B6A002B01DA0023FB71FB7918460C378A
:1023A400BD465DF8047B70470020024080B586B0CE
:1023B40000AF7860FFF744FD02467B6813447B61FD
:1023C4001B4B3B610BE07B68B3F1FF3F07D0FFF78A
:1023D40037FD02467B69934201D8032323E03B691E
:1023E4001B6803F44033002BEDD13B691A6842F2B9
:1023F400FA031340FB60FB68002B0AD00D4B5A68AC
:10240400FB6813430B4A53603B69FA681A60012363
:1024140009E03B691B6803F00103002B02D03B6910
:1024240001221A60002318461837BD4680BD00BF3C
:1024340020200240DC01002080B48BB000AF786023
:102444003960042387F827307B683B623B68FB6173
:10245400164BBB61BB691B6843F00102BB691A6080
:10246400EFF310833B613B697B6172B600BFFB698C
:102474001A683B6A1A603B6A04333B62FB690433A3
:10248400FB6197F82730013B87F8273097F827300E
:10249400002BECD17B69FB60FB6883F3108800BFE1
:1024A40000BF2C37BD465DF8047B704728200240EE
:1024B40080B48BB000AF78603960202387F8273070
:1024C4007B683B623B68FB61174BBB61BB691B6864
:1024D40043F4804343F00103BA691360EFF31083BC
:1024E4003B613B697B6172B600BFFB691A683B6A5A
:1024F4001A603B6A04333B62FB690433FB6197F85F
:102504002730013B87F8273097F82730002BECD190
:102514007B69FB60FB6883F3108800BF00BF2C3726
:10252400BD465DF8047B70472820024080B586B024
:1025340000AF78603960334B1B78012B01D1022343
:102544005CE0304B01221A702E4B00225A604FF48B
:102554007A70FFF72BFF0346FB75FB7D002B49D1F7
:102564007B681B68274A9360274BFB607B681B686A
:1025740023F0004348F2040293420BD17B685B686A
:10258400184600F043F84FF47A70FFF70FFF034644
:10259400FB7525E03B684FF0FF321A607B689B684F
:1025A4003B6115E07B685B681946386900F054F8B4
:1025B4004FF47A70FFF7FAFE0346FB75FB7D002BA0
:1025C40003D03B683A691A600AE03B6901333B6116
:1025D4007B689A687B68DB6813443A699A42E1D362
:1025E400FB681A687B681B6823F00043DB431A40CE
:1025F400FB681A60034B00221A70FB7D18461837DB
:10260400BD4680BDDC0100202820024080B485B096
:1026140000AF78600F4BFB607B6803F00103002B75
:1026240007D0FB681B6843F4803343F00403FA6863
:1026340013607B6803F00203002B05D0FB681B6862
:1026440043F4C032FB681A6000BF1437BD465DF81E
:10265400047B70472820024080B485B000AF7860C6
:102664003960144BFB603B6803F00103002B06D078
:10267400FB681B6823F40062FB681A6005E0FB68D2
:102684001B6843F40062FB681A60FB681B6823F450
:10269400813323F4FD737A68D200134343F4803307
:1026A40043F00203FA68136000BF1437BD465DF8B7
:1026B400047B70472820024080B489B000AF786062
:1026C400396000237B617B683B61BAE13B681A682F
:1026D40001217B6901FA03F31340FB607B69BB6151
:1026E400FB68002B00F0AA817B68554A93425DD1B8
:1026F4007B681B68FB6101227B6902FA03F3DB43FD
:10270400FA691340FB613B685B6803F001027B6973
:1027140002FA03F3FA691343FB617B68FA691A60EE
:10272400484A7B6952F833303B61464A7B69DB0097
:1027340013445B68BB61BB69DA083B69083253F830
:102744002230FB61BB6903F007039B000F2202FAEE
:1027540003F3DB43FA691340FB61BB6903F007032E
:102764009B000B2202FA03F3FA691343FB61BB6972
:10277400DA083B690832F96943F822103B691B689F
:10278400FB61BB695B00032202FA03F3DB43FA69D2
:102794001340FB61BB695B00022202FA03F3FA698E
:1027A4001343FB613B69FA691A6067E03B685B6845
:1027B400022B03D03B685B68122B45D17B69DA0896
:1027C4007B68083253F82230FB617B6903F007030E
:1027D4009B000F2202FA03F3DB43FA691340FB6107
:1027E4003B681B6903F00F027B6903F007039B003E
:1027F40002FA03F3FA691343FB617B69DA087B6825
:102804000832F96943F822103B691B68FB61BB6914
:102814005B00032202FA03F3DB43FA691340FB6112
:102824003B685B6803F00302BB695B0002FA03F3D5
:10283400FA691343FB613B69FA691A601EE000BF41
:1028440000000246B88D00083B691B68FB61BB6948
:102854005B00032202FA03F3DB43FA691340FB61D2
:102864003B685B6803F00302BB695B0002FA03F395
:10287400FA691343FB613B69FA691A603B685B6858
:10288400012B0BD03B685B68022B07D03B685B686D
:10289400112B03D03B685B68122B30D13B699B68DA
:1028A400FB61BB695B00032202FA03F3DB43FA69B1
:1028B4001340FB613B68DA68BB695B0002FA03F30F
:1028C400FA691343FB613B69FA699A603B695B6887
:1028D400FB610122BB6902FA03F3DB43FA6913408B
:1028E400FB613B685B681B0903F00102BB6902FAE8
:1028F40003F3FA691343FB613B69FA695A603B6865
:102904005B68032B17D03B69DB68FB61BB695B0029
:10291400032202FA03F3DB43FA691340FB613B68C9
:102924009A68BB695B0002FA03F3FA691343FB611B
:102934003B69FA69DA603B685B6803F08053002BFB
:102944007CD0474A7B699B08183352F82330FB61DB
:102954007B6903F00303DB000F2202FA03F3DB437A
:10296400FA691340FB617B689A0A3E4B13407A690B
:1029740002F00302D2009340FA691343FB61384921
:102984007B699B081833FA6941F82320344B1B6890
:10299400FB61FB68DB43FA691340FB613B685B68DE
:1029A40003F48013002B03D0FA69FB681343FB6123
:1029B4002B4AFB6913602A4B5B68FB61FB68DB43B2
:1029C400FA691340FB613B685B6803F40013002B56
:1029D40003D0FA69FB681343FB61214AFB69536026
:1029E4001F4BD3F88430FB61FB68DB43FA69134067
:1029F400FB613B685B6803F40033002B03D0FA6986
:102A0400FB681343FB61164AFB69C2F88430144B1C
:102A1400D3F88030FB61FB68DB43FA691340FB6148
:102A24003B685B6803F48033002B03D0FA69FB68CE
:102A34001343FB610A4AFB69C2F880307B690133A6
:102A44007B613B681A687B6922FA03F3002B7FF4ED
:102A54003DAE00BF00BF2437BD465DF8047B704720
:102A6400002002467F7F2F0080B483B000AF7860DF
:102A74000B467B8013467B707B78002B03D07A88CF
:102A84007B689A6102E07A887B689A6200BF0C379F
:102A9400BD465DF8047B704780B485B000AF7860B4
:102AA4000023FB730B4B1B6803F00103002B02D0C4
:102AB4000123FB7307E0074B1B6823F0040205495D
:102AC4007B6813430B60FB7B18461437BD465DF8E7
:102AD400047B70470004034080B400AF054B1B68BF
:102AE400044A43F00103136000231846BD465DF811
:102AF400047B70470004034080B582B000AF00231C
:102B0400FB71144B0222DA60124B1B68114A23F04A
:102B140001031360FFF794F938600FE0FFF790F9B1
:102B240002463B68D31A012B08D90A4B1B6803F0F1
:102B34000103002B02D00323FB7105E0054B1B6846
:102B440003F00103002BE9D1FB7918460837BD4691
:102B540080BD00BF0004034080B400AF054B9B6AF6
:102B6400044A43F00103936200BFBD465DF8047B51
:102B7400704700BF0008024680B400AF054B9B6A53
:102B8400044A23F00103936200BFBD465DF8047B51
:102B9400704700BF0008024680B485B000AF78607B
:102BA400344BDB6B03F44033BB60BA687B689A42F6
:102BB40001D1002357E07B68B3F5803F0AD92D4B40
:102BC400DB6823F4E0227B6813432A4A43F480231E
:102BD400D36007E0274BDB6823F4E02225497B68B8
:102BE4001343CB60244B1B68244AA2FB03239B0999
:102BF400322202FB03F3214AA2FB03239B09013384
:102C0400FB6002E0FB68013BFB601A4BDB6803F4EA
:102C14000043002B02D1FB68002BF3D1FB68002B8F
:102C24001BD0154B1B68154AA2FB03239B093222B8
:102C340002FB03F3114AA2FB03239B090133FB604C
:102C440002E0FB68013BFB600A4BDB6B03F40043CF
:102C5400002B02D1FB68002BF3D1FB68002B01D1C0
:102C6400032300E0002318461437BD465DF8047BB7
:102C7400704700BF0008024634010020D34D6210A3
:102C840080B400AF044BDB6B03F440331846BD46FD
:102C94005DF8047B704700BF0008024680B58EB023
:102CA40000AF7860002387F837307B68002B02D1AF
:102CB400012300F0C3BE9C4BDB6903F00C033B63B0
:102CC400994B9B6A03F00303FB627B681B6803F068
:102CD4001003002B00F072813B6B002B07D03B6B81
:102CE4000C2B40F0E480FB6A012B40F0E0808E4B1B
:102CF4001B6803F00403002B06D07B68DB69002B00
:102D040002D1012300F09ABE7B685A6A864B9B6805
:102D140003F40003002B04D0834B9B6803F070433F
:102D240005E0814BD3F8F4301B0403F07043934265
:102D340055D23B6B002B0AD17B685B6A184601F0C5
:102D44000BFA0346002B02D0012300F077BE764B2A
:102D54009B68754A43F400039360734B9B6823F0AC
:102D640070427B685B6A704913438B607B685B6A63
:102D7400B3F1404F09D36C4BDB6823F01F027B682F
:102D84001B6A69491343CB607EE07B685B6A002B56
:102D94000ADA654BDB6823F478727B681B6A5B0193
:102DA40061491343CB606FE07B685B6AB3F1804F8A
:102DB4000AD35D4BDB6823F4F8427B681B6A9B02F1
:102DC40059491343CB605FE0574BDB6823F4782207
:102DD4007B681B6ADB0354491343CB6054E0524BBA
:102DE4009B68514A43F4000393604F4B9B6823F064
:102DF40070427B685B6A4C4913438B607B685B6AF7
:102E0400B3F1404F09D3484BDB6823F01F027B68C2
:102E14001B6A45491343CB6028E07B685B6A002B3F
:102E24000ADA414BDB6823F478727B681B6A5B0126
:102E34003D491343CB6019E07B685B6AB3F1804F73
:102E44000AD3394BDB6823F4F8427B681B6A9B0284
:102E540035491343CB6009E0334BDB6823F4782214
:102E64007B681B6ADB0330491343CB603B6B002B4D
:102E74000AD17B685B6A184601F06EF90346002BA1
:102E840002D0012300F0DABD01F010F9274B1B68D2
:102E94001846FEF78BFF034687F8273097F827304C
:102EA400002B00F08A8097F8273000F0C7BD7B68BC
:102EB400DB69002B66D01C4B1B681B4A43F00103E3
:102EC4001360FEF7BDFFB86209E0FEF7B9FF0246E2
:102ED400BB6AD31A022B02D9032300F0AFBD124BF5
:102EE4001B6803F00403002BEFD00F4B9B680E4AC2
:102EF40043F4000393600C4B9B6823F070427B689F
:102F04005B6A094913438B607B685B6AB3F1404F8A
:102F14000ED3054BDB6823F01F027B681B6A024952
:102F24001343CB604AE000BF000C0246D4010020EA
:102F34007B685B6A002B0ADA9B4BDB6823F47872AC
:102F44007B681B6A5B0198491343CB6036E07B685E
:102F54005B6AB3F1804F0AD3934BDB6823F4F842E6
:102F64007B681B6A9B0290491343CB6026E08E4B1F
:102F7400DB6823F478227B681B6ADB038A491343EA
:102F8400CB601BE0884B1B68874A23F00103136066
:102F9400FEF756FFB86209E0FEF752FF0246BB6A2D
:102FA400D31A022B02D9032300F048BD7E4B1B68C1
:102FB40003F00403002BEFD100E000BF7B681B6823
:102FC40003F00103002B00F094803B6B082B05D029
:102FD4003B6B0C2B10D1FB6A032B0DD1724B1B687E
:102FE40003F40033002B00F083807B685B68002BC4
:102FF4007ED1012300F022BD7B685B68B3F5803F7E
:1030040006D1694B1B68684A43F48033136041E07E
:103014007B685B68B3F5A02F12D1634B1B68624ACF
:1030240043F480231360604B1B685F4A23F48013CE
:1030340013605D4B1B685C4A43F48033136029E0E2
:103044007B685B68B3F5A81F12D1574B1B68564ABF
:1030540043F480231360544B1B68534A43F4801396
:103064001360514B1B68504A43F48033136011E0E2
:103074004D4B1B684C4A23F4803313604A4B1B6846
:10308400494A23F480231360474B1B68464A23F4C0
:10309400801313607B685B68002B14D0FEF7D0FEAE
:1030A400B86209E0FEF7CCFE0246BB6AD31A642B71
:1030B40002D9032300F0C2BC3B4B1B6803F400336A
:1030C400002BEFD015E0FEF7BBFEB86209E0FEF777
:1030D400B7FE0246BB6AD31A642B02D9032300F05D
:1030E400ADBC314B1B6803F40033002BEFD100E07F
:1030F40000BF7B681B6803F00203002B66D03B6BA8
:10310400042B05D03B6B0C2B1AD1FB6A022B17D175
:10311400254B1B6803F48063002B06D07B68DB68B7
:10312400002B02D1012300F089BC1F4B1B6923F43F
:10313400F8127B681B691B041B4913430B6145E0B0
:103144007B68DB68002B24D0174B1B68164A43F4BA
:1031540080731360FEF774FEB86209E0FEF770FE38
:103164000246BB6AD31A022B02D9032300F066BCC1
:103174000D4B1B6803F48063002BEFD00A4B1B69D3
:1031840023F4F8127B681B691B04074913430B6182
:103194001CE0054B1B68044A23F480731360FEF79C
:1031A4004FFEB8620CE000BF000C0246FEF748FE7A
:1031B4000246BB6AD31A022B02D9032300F03EBC99
:1031C400AF4B1B6803F48063002BEFD17B681B6853
:1031D40003F00803002B00F0C780002387F8363083
:1031E400A74BD3F8943003F00403002B11D1A44B64
:1031F400D3F89430A24A43F00403C2F89430A04BAD
:10320400D3F8943003F004037B617B69012387F8CE
:1032140036309C4B9B6A03F00103002B18D1994B69
:103224009B6A984A43F001039362FEF709FEB86271
:1032340008E0FEF705FE0246BB6AD31A022B01D949
:103244000323FBE38F4B9B6A03F00103002BF0D0B5
:103254007B685B69002B5FD0894BD3F8F0303B620D
:103264007B689A693B6A03F080539A4237D03B6A81
:1032740003F00063002B06D03B6A03F08063002B4D
:1032840001D10123DAE33B6A03F08063002B1BD0F6
:103294007B4BD3F8F0307A4A23F0A053C2F8F030D5
:1032A400FEF7CEFDB86208E0FEF7CAFD0246BB6A2F
:1032B400D31A022B01D90323C0E3714BD3F8F030A6
:1032C40003F00063002BEFD16D4BD3F8F03023F003
:1032D40080527B689B696A491343C1F8F030684B9C
:1032E400D3F8F030664A43F08063C2F8F030FEF75A
:1032F400A7FDB86208E0FEF7A3FD0246BB6AD31A35
:10330400022B01D9032399E35D4BD3F8F03003F08A
:103314000063002BEFD01BE0594BD3F8F030584A30
:1033240023F0A053C2F8F030FEF78AFDB86208E03B
:10333400FEF786FD0246BB6AD31A022B01D903238A
:103344007CE34F4BD3F8F03003F00063002BEFD154
:1033540097F83630012B07D1494BD3F89430484ABB
:1033640023F00403C2F894307B681B6803F0040361
:10337400002B00F01281002387F83530404BD3F83E
:10338400943003F00403002B11D13D4BD3F8943057
:103394003B4A43F00403C2F89430394BD3F89430D9
:1033A40003F004033B613B69012387F83530354B57
:1033B4009B6A03F00103002B18D1324B9B6A314AFC
:1033C40043F001039362FEF73BFDB86208E0FEF7A9
:1033D40037FD0246BB6AD31A022B01D903232DE31E
:1033E400284B9B6A03F00103002BF0D07B689B6899
:1033F40003F00103002B1FD07B689B6803F00403D8
:10340400002B10D01E4BD3F8F0301D4A43F00403B8
:10341400C2F8F0301A4BD3F8F030194A43F00103E4
:10342400C2F8F03018E0164BD3F8F030144A43F0E9
:103434000103C2F8F0300FE0114BD3F8F030104A1A
:1034440023F00103C2F8F0300D4BD3F8F0300C4AEE
:1034540023F00403C2F8F0307B689B68002B58D03B
:10346400FEF7EEFCB8620FE0FEF7EAFC0246BB6A28
:10347400D31A41F28832934206D90323DEE200BF15
:10348400000C0246000802469C4BD3F8F03003F0CF
:103494000203002BE8D07B689B6803F08003002BB9
:1034A4001BD0964BD3F8F030944A43F08003C2F813
:1034B400F0300AE0FEF7C4FC0246BB6AD31A41F2BC
:1034C4008832934201D90323B8E28C4BD3F8F0300D
:1034D40003F40063002BEDD053E0884BD3F8F030B5
:1034E400864A23F08003C2F8F0300AE0FEF7A8FC15
:1034F4000246BB6AD31A41F28832934201D90323AC
:103504009CE27E4BD3F8F03003F40063002BEDD142
:1035140037E0FEF795FCB8620AE0FEF791FC02463C
:10352400BB6AD31A41F28832934201D9032385E25C
:10353400724BD3F8F03003F00203002BEDD16F4B44
:10354400D3F8F03003F08003002B1AD06B4BD3F880
:10355400F0306A4A23F08003C2F8F0300AE0FEF744
:103564006FFC0246BB6AD31A41F28832934201D9F6
:10357400032363E2614BD3F8F03003F40063002BC0
:10358400EDD197F83530012B07D15C4BD3F894304B
:103594005A4A23F00403C2F894307B681B6803F092
:1035A4002003002B36D07B68DB6A002B19D0534BE9
:1035B4001B68524A43F480531360FEF741FCB8621F
:1035C40008E0FEF73DFC0246BB6AD31A022B01D980
:1035D400032333E2494B1B6803F40053002BF0D060
:1035E40018E0464B1B68454A23F480531360FEF7EA
:1035F40027FCB86208E0FEF723FC0246BB6AD31A34
:10360400022B01D9032319E23C4B1B6803F400533A
:10361400002BF0D17B681B6803F08003002B36D0AD
:103624007B681B6B002B19D0344B1B68334A43F463
:1036340080431360FEF704FCB86208E0FEF700FC68
:103644000246BB6AD31A022B01D90323F6E12B4BA2
:103654001B6803F40043002BF0D018E0274B1B68D1
:10366400264A23F480431360FEF7EAFBB86208E0BD
:10367400FEF7E6FB0246BB6AD31A022B01D90323E9
:10368400DCE11E4B1B6803F40043002BF0D17B6884
:103694001B6803F04003002B7FD07B685B6B002B1F
:1036A40062D0164B9B68154A43F400039360134B96
:1036B4009B6823F070627B689B6A104913438B609C
:1036C4007B685B6AB3F1404F09D30C4BDB6823F092
:1036D4001F027B681B6A09491343CB602AE07B689D
:1036E4005B6A002B0CDA054BDB6823F478727B6889
:1036F4001B6A5B0101491343CB601BE0000C0246CB
:103704007B685B6AB3F1804F0AD3A54BDB6823F473
:10371400F8427B681B6A9B02A1491343CB6009E012
:103724009F4BDB6823F478227B681B6ADB039C498C
:103734001343CB609A4B1B68994A43F01003136000
:10374400FEF77EFBB86208E0FEF77AFB0246BB6A2E
:10375400D31A022B01D9032370E1914B1B6803F0A8
:103764002003002BF0D018E08D4B1B688C4A23F00B
:1037740010031360FEF764FBB86208E0FEF760FB19
:103784000246BB6AD31A022B01D9032356E1844BA8
:103794001B6803F02003002BF0D17B689B6B002B8C
:1037A40000F04B81002387F834307D4BDB6903F054
:1037B4000C030C2B00F0FA807B689B6B022B40F00F
:1037C400CC80774B1B68764A23F080731360FEF736
:1037D40037FBB86208E0FEF733FB0246BB6AD31A34
:1037E400022B01D9032329E16D4B1B6803F00073FD
:1037F400002BF0D16A4BD3F8943003F00403002B70
:1038040011D1674BD3F89430654A43F00403C2F8EE
:103814009430634BD3F8943003F00403FB60FB68EB
:10382400012387F834305F4BDB6803F48023B3F55E
:10383400802F02D1012387F837305A4BDB68594A6D
:1038440023F48023D360564B9B6A23F47F4323F0F5
:1038540003037A68D16B7A68126C013A120211433D
:103864007A68526C0A434E4913438B624C4B5A6B31
:103874004D4B13407A68926C013AC2F308017A689E
:10388400D26C013A520292B211437A68126D013A33
:10389400120402F4FE0211437A68526D013A1206D0
:1038A40002F0FE420A433E4913434B633C4B9B6A7E
:1038B4003B4A23F010039362394B9B6B23F47F4301
:1038C40023F0F8037A68D26DD200354913438B6331
:1038D400334B9B6A324A43F010039362304B9B6A2A
:1038E40023F00C027B689B6D2D4913438B6297F880
:1038F4003730012B05D12B4BDB682A4A43F4802354
:10390400D36097F83430012B07D1254BD3F894308A
:10391400234A23F00403C2F89430214B9B6A204AC3
:1039240043F4802393621E4B1B681D4A43F080734B
:103934001360FEF785FAB86208E0FEF781FA0246E2
:10394400BB6AD31A022B01D9032377E0144B1B68FB
:1039540003F00073002BF0D06FE0114B1B68104A8A
:1039640023F080731360FEF76BFAB86208E0FEF789
:1039740067FA0246BB6AD31A022B01D903235DE01E
:10398400074B1B6803F00073002BF0D1044B9B6AB8
:10399400034A23F4E02323F0030393624DE000BFC2
:1039A400000C02460008024600008080254B9B6AFA
:1039B400FB61244B5B6BBB617B689B6B012B3AD037
:1039C400FB6903F003027B68DB6B9A4233D1FB692A
:1039D4001B0A03F00F027B681B6C013B9A422AD13D
:1039E400FB691B0B03F00F027B685B6C9A4222D1CC
:1039F400BB69C3F308027B689B6C013B9A421AD1F2
:103A0400BB695B0A03F07F027B68DB6C013B9A4273
:103A140011D1BB691B0C03F07F027B681B6D013B5A
:103A24009A4208D1BB691B0E03F07F027B685B6D71
:103A3400013B9A4201D0012300E0002318463837A5
:103A4400BD4680BD000C024680B586B000AF7860EC
:103A540039607B68002B01D10123D9E19B4B1B68A2
:103A640003F00F033A689A4210D9984B1B6823F06D
:103A74000F0296493B6813430B60944B1B6803F099
:103A84000F033A689A4201D00123C1E17B681B68A5
:103A940003F01003002B10D07B685A698C4B5B6ACF
:103AA40003F070039A4208D9894B5B6A23F07002D1
:103AB4007B685B69864913434B627B681B6803F030
:103AC4000803002B12D07B681A69814B1B6A1B09FF
:103AD40003F070039A4209D97D4B1B6A23F4E06218
:103AE4007B681B691B017A4913430B627B681B6863
:103AF40003F00403002B10D07B68DA68744B1B6A54
:103B040003F070039A4208D9714B1B6A23F07002C8
:103B14007B68DB686E4913430B627B681B6803F0A8
:103B24000203002B10D07B689A68694B1B6A03F070
:103B34000F039A4208D9664B1B6A23F00F027B6875
:103B44009B68634913430B627B681B6803F00103A2
:103B5400002B00F0D2800023FB757B685B68032B8D
:103B640043D15B4BD3F8943003F00403002B10D102
:103B7400574BD3F89430564A43F00403C2F89430B8
:103B8400534BD3F8943003F00403BB60BB680123A8
:103B9400FB75FEF755F938614E4BDB6803F480235F
:103BA400002B0FD008E0FEF74BF902463B69D31A0D
:103BB400022B01D903232BE1464BDB6803F480433A
:103BC400002BF0D0FB7D012B07D1414BD3F894306F
:103BD4003F4A23F00403C2F894303D4B1B6803F0C2
:103BE4000073002B21D1012312E17B685B68022B57
:103BF40007D1374B1B6803F40033002B15D1012385
:103C040006E17B685B68002B07D1314B1B6803F02E
:103C14000403002B09D10123FAE02D4B1B6803F4A4
:103C24008063002B01D10123F2E0294BDB6923F0EF
:103C340003027B685B6826491343CB61FEF700F9F6
:103C440038617B685B68032B12D10AE0FEF7F8F851
:103C540002463B69D31A41F28832934201D90323C5
:103C6400D6E01B4BDB6903F00C030C2BEED144E0D4
:103C74007B685B68022B12D10AE0FEF7E1F802468A
:103C84003B69D31A41F28832934201D90323BFE03E
:103C94000F4BDB6903F00C03082BEED12DE07B689E
:103CA4005B68002B23D10AE0FEF7CAF802463B69A1
:103CB400D31A41F28832934201D90323A8E0044B7A
:103CC400DB6903F00C03002BEED116E00020024068
:103CD400000C024600080246FEF7B2F802463B69B1
:103CE400D31A41F28832934201D9032390E04A4B1C
:103CF400DB6903F00C03042BEED17B681B6803F033
:103D04000203002B10D07B689A68434B1B6A03F0B4
:103D14000F039A4208D2404B1B6A23F00F027B68C0
:103D24009B683D4913430B623C4B1B6803F00F0334
:103D34003A689A4210D2394B1B6823F00F02374974
:103D44003B6813430B60354B1B6803F00F033A6861
:103D54009A4201D001235BE07B681B6803F00403F3
:103D6400002B10D07B68DA682B4B1B6A03F07003BE
:103D74009A4208D2284B1B6A23F070027B68DB68E6
:103D8400254913430B627B681B6803F00803002B6F
:103D940012D07B681A69204B1B6A1B0903F070035D
:103DA4009A4209D21C4B1B6A23F4E0627B681B69AC
:103DB4001B01194913430B627B681B6803F0100352
:103DC400002B10D07B685A69134B5B6A03F07003B5
:103DD4009A4208D2104B5B6A23F070027B685B69DD
:103DE4000D4913434B6200F059F802460A4B1B6A13
:103DF40003F00F030A49CB5C22FA03F3094A136068
:103E0400094B1B681846FDF7D1FF0346FB73FB7B88
:103E140018461837BD4680BD000C024600200240FB
:103E2400608D000834010020D401002080B58AB0E0
:103E340000AFF860B9607A60164BD3F88C30154A3D
:103E440043F00103C2F88C30124BD3F88C3003F0EA
:103E540001033B613B694FF480737B610223BB61C7
:103E640002233B620023FB6100237B6207F11403FE
:103E740019460948FEF720FC064BDB6923F0FE4295
:103E8400B9687B680B4303491343CB6100BF2837F0
:103E9400BD4680BD000C02460000024280B48BB0D7
:103EA40000AF00237B6200233B627B4BDB6903F0A2
:103EB4000C03BB61784B9B6A03F003037B61BB6912
:103EC400002B05D0BB690C2B21D17B69012B1ED1A2
:103ED400714B9B6803F40003002B07D16E4BD3F89E
:103EE400F4301B0B03F00F037B6205E06A4B9B6805
:103EF4001B0F03F00F037B62684A7B6A52F823307E
:103F04007B62BB69002B10D17B6A3B620DE0624B84
:103F1400DB6903F00C03042B02D1614B3B6204E028
:103F2400BB69082B01D15E4B3B62BB690C2B40F093
:103F3400AC80594B9B6A03F003033B61564B9B6A6D
:103F44001B0A03F00F030133FB60534B9B6A1B09ED
:103F540003F00103BB60504B9B6BDB08C3F30C0302
:103F6400BA6802FB03F307EE903AF8EE677AC7EDFE
:103F7400017AFB68002B00F086803B69022B03D09A
:103F84003B69032B22D043E0FB6807EE903AF8EE3E
:103F9400677ADFED446A86EEA77A3F4B5B6BC3F327
:103FA400080307EE903AF8EE676A97ED016ADFEDD1
:103FB4003E5AC6EE257A76EEA77AF7EE006A77EED9
:103FC400A67A67EE277AC7ED077A46E0FB6807EE24
:103FD400903AF8EE677ADFED336A86EEA77A2E4BD5
:103FE4005B6BC3F3080307EE903AF8EE676A97ED4C
:103FF400016ADFED2D5AC6EE257A76EEA77AF7EE42
:10400400006A77EEA67A67EE277AC7ED077A24E08E
:104014007B6A07EE903AF8EE676AFB6807EE903A1F
:10402400F8EE677A86EEA77A1B4B5B6BC3F3080343
:1040340007EE903AF8EE676A97ED016ADFED1A5AD7
:10404400C6EE257A76EEA77AF7EE006A77EEA67AC0
:1040540067EE277AC7ED077A00BF0F4B5B6B1B0E29
:1040640003F07F0301333B603B6807EE903AB8EE00
:10407400677AD7ED076AC6EE877AFCEEE77A17EE21
:10408400903A3B6201E000233B623B6A18462C37BE
:10409400BD465DF8047B7047000C0246788D00082D
:1040A4000024F4000024744B0000004680B500AFE7
:1040B400FFF7F4FE0246074B1B6A03F00F030649A1
:1040C400CB5C22FA03F3054A1360044B1B681846C1
:1040D40080BD00BF000C0246608D00083401002042
:1040E40080B500AFFFF7E2FF0246054B1B6A1B09D0
:1040F40003F007030349CB5C22FA03F3184680BD9F
:10410400000C0246708D000880B500AFFFF7CEFFAB
:104114000246054B1B6A1B0A03F007030349CB5CE9
:1041240022FA03F3184680BD000C0246708D000885
:1041340080B500AFFFF7BAFF0246054B5B6A1B0967
:1041440003F007030349CB5C22FA03F3184680BD4E
:10415400000C0246708D000880B586B000AF786010
:104164003E4BD3F8943003F00403002B03D0FEF746
:1041740087FD786119E0394BD3F89430374A43F01E
:104184000403C2F89430354BD3F8943003F004039D
:10419400FB60FB68FEF774FD7861304BD3F8943014
:1041A4002E4A23F00403C2F894307B69B3F5403FF0
:1041B40003D07B69B3F5003F09D17B68B3F1805F1D
:1041C40002D201233B6133E000233B6130E07B6892
:1041D400B3F1805F08D27B69B3F5803F02D103233A
:1041E4003B6125E0012335E07B68B3F1005F0FD923
:1041F4007B69002B09D17B68B3F1405F02D90023AE
:104204003B6115E001233B6112E000233B610FE0B9
:104214007B68B3F1805F09D17B69B3F5803F02D13C
:1042240001233B6104E002233B6101E001233B6184
:104234000B4B1B6823F00F0209493B6913430B60C6
:10424400074B1B6803F00F033A699A4201D001231C
:1042540000E0002318461837BD4680BD000C024616
:10426400002002402DE9B04FBAB000AFC7F8D40027
:10427400002387F8E330002387F8E230D7F8D430FE
:10428400D3E9002302F00104002554EA05030BD00E
:10429400CB4BD3F8E03023F00301D7F8D4301B6DB7
:1042A400C74A0B43C2F8E030D7F8D430D3E900232F
:1042B40002F002084FF0000958EA09030BD0C04B82
:1042C400D3F8E03023F00C01D7F8D4305B6DBC4A4E
:1042D4000B43C2F8E030D7F8D430D3E9002302F01E
:1042E400040A4FF0000B5AEA0B030BD0B44BD3F87B
:1042F400E03023F03001D7F8D4309B6DB04A0B4343
:10430400C2F8E030D7F8D430D3E9002302F0080330
:10431400C7F8C8300023C7F8CC30D7E932120B46AF
:1043240013430BD0A64BD3F8E03023F0C001D7F8E9
:10433400D430DB6DA24A0B43C2F8E030D7F8D43056
:10434400D3E9002302F01003C7F8C0300023C7F8F4
:10435400C430D7E930120B4613430BD0984BD3F833
:10436400E03023F44071D7F8D4301B6E944A0B43E9
:10437400C2F8E030D7F8D430D3E9002302F02003A8
:10438400C7F8B8300023C7F8BC30D7E92E120B4663
:1043940013430BD08A4BD3F8E83023F00701D7F846
:1043A400D4305B6E864A0B43C2F8E830D7F8D43079
:1043B400D3E9002302F04003C7F8B0300023C7F864
:1043C400B430D7E92C120B4613430BD07C4BD3F8F3
:1043D400E03023F44061D7F8D4309B6E784A0B4325
:1043E400C2F8E030D7F8D430D3E9002302F08003D8
:1043F400C7F8A8300023C7F8AC30D7E92A120B4617
:1044040013430BD06E4BD3F8E03023F44051D7F86C
:10441400D430DB6E6A4A0B43C2F8E030D7F8D430AC
:10442400D3E9002302F48073C7F8A0300023C7F84F
:10443400A430D7E928120B4613430BD0604BD3F8B2
:10444400E83023F0C001D7F8D4301B6F5C4A0B432B
:10445400C2F8E830D7F8D430D3E9002302F480035B
:10446400C7F898300023C7F89C30D7E926120B46CA
:1044740013430BD0524BD3F8E03023F44041D7F828
:10448400D4305B6F4E4A0B43C2F8E030D7F8D430D7
:10449400D3E9002302F40073C7F890300023C7F86F
:1044A4009430D7E924120B4613430BD0444BD3F872
:1044B400E83023F44061D7F8D4309B6F404A0B4373
:1044C400C2F8E830D7F8D430D3E9002302F480638B
:1044D400C7F888300023C7F88C30D7E922120B467E
:1044E40013430BD0364BD3F8E03023F44021D7F8F4
:1044F400D430DB6F324A0B43C2F8E030D7F8D43003
:10450400D3E9002302F40063C7F880300023C7F81E
:104514008430D7E920120B4613430CD0284BD3F830
:10452400E83023F44071D7F8D430D3F88030244AEB
:104534000B43C2F8E830D7F8D430D3E9002302F4AF
:104544000053BB670023FB67D7E91E120B461343D6
:104554004FD0D7F8D430D3F89030802B2DD0802B87
:1045640027D8602B2ED0602B23D8402B06D0402B8D
:104574001FD8002B09D0202B11D01AE0104B9B6AB6
:104584000F4A43F4803393621DE0D7F8D4300833E4
:10459400184602F0F5F9034687F8E33013E0D7F83C
:1045A400D4302C33184602F083FA034687F8E330FC
:1045B40009E0012387F8E33005E000BF03E000BF12
:1045C400000C024600BF97F8E330002B0DD1B64B28
:1045D400D3F8E43023F0E001D7F8D430D3F89030A6
:1045E400B14A0B43C2F8E43003E097F8E33087F8AC
:1045F400E230D7F8D430D3E9002302F480433B6798
:1046040000237B67D7E91C120B46134353D0D7F81A
:10461400D430D3F89430B3F5806F33D0B3F5806FD2
:104624002CD8B3F5407F2FD0B3F5407F26D8B3F50F
:10463400007F08D0B3F5007F20D8002B0AD0B3F553
:10464400807F11D01AE0984B9B6A974A43F48033D9
:1046540093621AE0D7F8D4300833184602F090F980
:10466400034687F8E33010E0D7F8D4302C331846EB
:1046740002F01EFA034687F8E33006E0012387F8C8
:10468400E33002E000BF00E000BF97F8E330002B06
:104694000DD1854BD3F8E43023F4E061D7F8D4305E
:1046A400D3F89430804A0B43C2F8E43003E097F81F
:1046B400E33087F8E230D7F8D430D3E9002302F4AA
:1046C4000043BB660023FB66D7E91A120B4613436B
:1046D40046D0D7F8D430D3F8A830B3F5A04F28D0BB
:1046E400B3F5A04F21D8B3F5804F22D0B3F5804F56
:1046F4001BD8B3F5405F1CD0B3F5405F15D8B3F5B4
:10470400005F08D0B3F5005F0FD8002B11D0B3F5CC
:10471400805F0ED009E0D7F8D4300833184602F091
:104724002FF9034687F8E33004E0012387F8E330E8
:1047340000E000BF97F8E330002B0DD15A4BD3F8BB
:10474400E83023F4E041D7F8D430D3F8A830564AFF
:104754000B43C2F8E83003E097F8E33087F8E2301F
:10476400D7F8D430D3E9002302F480333B66002326
:104774007B66D7E918120B4613433FD0D7F8D430E1
:10478400D3F88830042B1ED801A252F823F000BFBE
:10479400D3470008A9470008B7470008D3470008D3
:1047A400D3470008404B9B6A3F4A43F480339362EB
:1047B4000EE0D7F8D4302C33184602F079F90346CA
:1047C40087F8E33004E0012387F8E33000E000BF1A
:1047D40097F8E330002B0DD1334BD3F8E43023F0BA
:1047E4000701D7F8D430D3F888302F4A0B43C2F8E6
:1047F400E43003E097F8E33087F8E230D7F8D430B8
:10480400D3E9002302F40033BB650023FB65D7E939
:1048140016120B4613434DD0D7F8D430D3F88C304E
:10482400B3F5802F28D0B3F5802F21D8B3F5403FBE
:1048340024D0B3F5403F1BD8B3F5003F0ED0B3F5F9
:10484400003F15D8002B1BD0B3F5803F10D1164B79
:104854009B6A154A43F48033936212E0D7F8D4304C
:104864002C33184602F024F9034687F8E33008E0B5
:10487400012387F8E33004E000BF02E000BF00E05A
:1048840000BF97F8E330002B10D1074BD3F8E83082
:1048940023F4E021D7F8D430D3F88C30024A0B4308
:1048A400C2F8E83006E000BF000C024697F8E33097
:1048B40087F8E230D7F8D430D3E9002302F4802318
:1048C4003B6500237B65D7E914120B46134300F0C4
:1048D400B580002387F8E1309D4BD3F8943003F082
:1048E4000403002B13D19A4BD3F89430984A43F025
:1048F4000403C2F89430964BD3F8943003F00403C5
:10490400C7F8D830D7F8D830012387F8E130914B75
:104914009B6A904A43F001039362FDF791FAC7F84A
:10492400DC000BE0FDF78CFA0246D7F8DC30D31A32
:10493400022B03D9032387F8E33005E0854B9B6AF8
:1049440003F00103002BEDD097F8E330002B65D181
:104954007F4BD3F8F03003F44073C7F8E430D7F852
:10496400E430002B23D0D7F8D430D3F8C020D7F8C4
:10497400E43093421BD0764BD3F8F03023F44073E9
:10498400C7F8E430724BD3F8F030714A43F4803303
:10499400C2F8F0306E4BD3F8F0306D4A23F4803314
:1049A400C2F8F0306A4AD7F8E430C2F8F030D7F8E9
:1049B400E43003F00103002B19D0FDF741FAC7F8E6
:1049C400DC000DE0FDF73CFA0246D7F8DC30D21AE1
:1049D40041F288339A4203D9032387F8E33006E08F
:1049E4005B4BD3F8F03003F00203002BEAD097F8C6
:1049F400E330002B0DD1564BD3F8F03023F4407143
:104A0400D7F8D430D3F8C030514A0B43C2F8F03051
:104A140008E097F8E33087F8E23003E097F8E330F2
:104A240087F8E23097F8E130012B07D1484BD3F8EF
:104A34009430474A23F00403C2F89430D7F8D430B2
:104A4400D3E9002302F48013BB640023FB64D7E999
:104A540012120B46134342D0D7F8D430D3F8A03007
:104A6400B3F1406F22D0B3F1406F1BD8B3F1006FA4
:104A740011D0B3F1006F15D8002B19D0B3F1806FAA
:104A840010D1D7F8D4300833184601F079FF034623
:104A940087F8E3300DE02E4B9B6A2D4A43F4003334
:104AA400936206E0012387F8E33002E000BF00E0F0
:104AB40000BF97F8E330002B0DD1254BD3F8E0303D
:104AC40023F04061D7F8D430D3F8A030204A0B4308
:104AD400C2F8E03003E097F8E33087F8E230D7F823
:104AE400D430D3E9002302F400233B6400237B6425
:104AF400D7E910120B46134332D0D7F8D430D3F889
:104B04009830B3F5005F0BD0B3F5005F04D8002BE9
:104B140008D0B3F5805F07D0012387F8E33004E0C1
:104B240000BF02E000BF00E000BF97F8E330002BB5
:104B340012D1074BD3F8E43023F44051D7F8D430E2
:104B4400D3F89830024A0B43C2F8E43008E000BFBF
:104B5400000C02460008024697F8E33087F8E2307A
:104B6400D7F8D430D3E9002302F48053BB63002385
:104B7400FB63D7E90E120B4613430CD0984BD3F8C2
:104B8400E43023F40061D7F8D430D3F89C30944A4D
:104B94000B43C2F8E430D7F8D430D3E9002302F44D
:104BA40000133B6300237B63D7E90C120B461343CA
:104BB40019D0D7F8D430D3F8A430B3F5804F05D149
:104BC400874B9B6A864A43F480339362844BD3F8C1
:104BD400E43023F48041D7F8D430D3F8A430804AA9
:104BE4000B43C2F8E430D7F8D430D3E9002302F4FD
:104BF4000003BB620023FB62D7E90A120B4613438E
:104C04000CD0774BD3F8E03023F44012D7F8D430EB
:104C1400D3F8B43072491343C1F8E030D7F8D43034
:104C2400D3E9002302F080733B6200237B62D7E95F
:104C340008120B4613430CD0694BD3F8E03023F42D
:104C44004032D7F8D430D3F8B83065491343C1F8AB
:104C5400E030D7F8D430D3E9002302F00073BB610D
:104C64000023FB61D7E906120B4613430CD05C4BBF
:104C7400D3F8E83023F01802D7F8D430D3F8BC3096
:104C840057491343C1F8E830D7F8D430D3E90023A7
:104C940002F080633B6100237B61D7E904120B4679
:104CA400134332D0D7F8D430D3F8B030B3F5001F63
:104CB40005D14B4B9B6A4A4A43F400339362D7F8BD
:104CC400D430D3F8B030B3F5401F08D1D7F8D4307E
:104CD4000833184601F054FE034687F8E33097F88A
:104CE400E330002B0DD13E4BD3F8E43023F44012D3
:104CF400D7F8D430D3F8B03039491343C1F8E4308D
:104D040003E097F8E33087F8E230D7F8D430D3E9FA
:104D1400002302F00063BB600023FB60D7E90212AA
:104D24000B4613433AD0D7F8D430D3F88430B3F1D8
:104D3400007F0ED0B3F1007F15D8002B17D0B3F14C
:104D4400807F10D1264B9B6A254A43F4003393623B
:104D54000EE0D7F8D4300833184601F011FE0346AC
:104D640087F8E33004E0012387F8E33000E000BF74
:104D740097F8E330002B0DD1194BD3F8E03023F032
:104D84004072D7F8D430D3F8843015491343C1F8AE
:104D9400E03003E097F8E33087F8E230D7F8D43016
:104DA400D3E9002302F080533B6000237B60D7E902
:104DB40000120B4613430CD0094BD3F8E83023F40C
:104DC4000042D7F8D430D3F8AC3005491343C1F8C6
:104DD400E83097F8E2301846E837BD46BDE8B08FB2
:104DE400000C024680B489B000AF7860AC4B5B6BBA
:104DF400C3F30803BB61AA4B9B6A03F003037B6103
:104E0400A74B9B6A1B0A03F00F0301333B61A44BBE
:104E14009B6A03F01003FB60A14B9B6BDB08C3F39D
:104E24000C03FA6802FB03F307EE903AF8EE677A94
:104E3400C7ED027A3B69002B00F023817B69032BC9
:104E440062D07B69032B00F281807B69012B24D023
:104E54007B69022B7AD13B6907EE903AF8EE677AC8
:104E6400DFED906A86EEA77A8D4B5B6BC3F3080384
:104E740007EE903AF8EE676A97ED026ADFED8A5A18
:104E8400C6EE257A76EEA77AF7EE006A77EEA67A72
:104E940067EE277AC7ED077A8FE0814B9B6803F4AE
:104EA4000003002B05D07E4B9B681B0F03F00F0300
:104EB40006E07B4BD3F8F4301B041B0F03F00F0305
:104EC4007A4A52F8233007EE903AF8EE676A3B6963
:104ED40007EE903AF8EE677A86EEA77ABB6907EE9A
:104EE400903AF8EE676A97ED026ADFED6F5AC6EE04
:104EF400257A76EEA77AF7EE006A77EEA67A67EE61
:104F0400277AC7ED077A58E03B6907EE903AF8EE46
:104F1400677ADFED646A86EEA77A614B5B6BC3F355
:104F2400080307EE903AF8EE676A97ED026ADFED40
:104F34005E5AC6EE257A76EEA77AF7EE006A77EE29
:104F4400A67A67EE277AC7ED077A36E0544B9B685A
:104F540003F40003002B05D0514B9B681B0F03F097
:104F64000F0306E04E4BD3F8F4301B041B0F03F081
:104F74000F034E4A52F8233007EE903AF8EE676A70
:104F84003B6907EE903AF8EE677A86EEA77ABB693A
:104F940007EE903AF8EE676A97ED026ADFED425A3F
:104FA400C6EE257A76EEA77AF7EE006A77EEA67A51
:104FB40067EE277AC7ED077A00BF394B9B6A03F483
:104FC4008033002B17D0364B5B6B5B0A03F07F03F7
:104FD40007EE903AF8EE677AB7EE007A37EE877A02
:104FE400D7ED076AC6EE877AFCEEE77A17EE902AC9
:104FF4007B681A6002E07B6800221A60284B9B6A77
:1050040003F40033002B17D0254B5B6B1B0C03F010
:105014007F0307EE903AF8EE677AB7EE007A37EE40
:10502400877AD7ED076AC6EE877AFCEEE77A17EE41
:10503400902A7B685A6002E07B6800225A60184B11
:105044009B6A03F48023002B17D0154B5B6B1B0E5C
:1050540003F07F0307EE903AF8EE677AB7EE007A32
:1050640037EE877AD7ED076AC6EE877AFCEEE77AE1
:1050740017EE902A7B689A600CE07B6800229A60A5
:1050840008E07B6800221A607B6800225A607B6813
:1050940000229A6000BF2437BD465DF8047B704748
:1050A400000C02460024744B00000046788D000872
:1050B40080B489B000AF7860AC4BDB6BC3F30803FA
:1050C400BB61AA4BDB6A03F003037B61A74BDB6A7A
:1050D4001B0A03F00F0301333B61A44BDB6A03F0AB
:1050E4001003FB60A14B1B6CDB08C3F30C03FA68D1
:1050F40002FB03F307EE903AF8EE677AC7ED027A03
:105104003B69002B00F023817B69032B62D07B6910
:10511400032B00F281807B69012B24D07B69022B55
:105124007AD13B6907EE903AF8EE677ADFED906A40
:1051340086EEA77A8D4BDB6BC3F3080307EE903A38
:10514400F8EE676A97ED026ADFED8A5AC6EE257AB1
:1051540076EEA77AF7EE006A77EEA67A67EE277AFC
:10516400C7ED077A8FE0814B9B6803F40003002BA3
:1051740005D07E4B9B681B0F03F00F0306E07B4BAF
:10518400D3F8F4301B041B0F03F00F037A4A52F8D0
:10519400233007EE903AF8EE676A3B6907EE903ADF
:1051A400F8EE677A86EEA77ABB6907EE903AF8EED6
:1051B400676A97ED026ADFED6F5AC6EE257A76EEDE
:1051C400A77AF7EE006A77EEA67A67EE277AC7ED3C
:1051D400077A58E03B6907EE903AF8EE677ADFED1C
:1051E400646A86EEA77A614BDB6BC3F3080307EEB0
:1051F400903AF8EE676A97ED026ADFED5E5AC6EE02
:10520400257A76EEA77AF7EE006A77EEA67A67EE4D
:10521400277AC7ED077A36E0544B9B6803F4000302
:10522400002B05D0514B9B681B0F03F00F0306E0C6
:105234004E4BD3F8F4301B041B0F03F00F034E4AFC
:1052440052F8233007EE903AF8EE676A3B6907EEAE
:10525400903AF8EE677A86EEA77ABB6907EE903A41
:10526400F8EE676A97ED026ADFED425AC6EE257AD8
:1052740076EEA77AF7EE006A77EEA67A67EE277ADB
:10528400C7ED077A00BF394BDB6A03F48033002B88
:1052940017D0364BDB6B5B0A03F07F0307EE903AC3
:1052A400F8EE677AB7EE007A37EE877AD7ED076AB9
:1052B400C6EE877AFCEEE77A17EE902A7B681A60CE
:1052C40002E07B6800221A60284BDB6A03F4003397
:1052D400002B17D0254BDB6B1B0C03F07F0307EE71
:1052E400903AF8EE677AB7EE007A37EE877AD7ED20
:1052F400076AC6EE877AFCEEE77A17EE902A7B6897
:105304005A6002E07B6800225A60184BDB6A03F49F
:105314008023002B17D0154BDB6B1B0E03F07F0390
:1053240007EE903AF8EE677AB7EE007A37EE877AAE
:10533400D7ED076AC6EE877AFCEEE77A17EE902A75
:105344007B689A600CE07B6800229A6008E07B68C6
:1053540000221A607B6800225A607B6800229A60EF
:1053640000BF2437BD465DF8047B7047000C02463D
:105374000024744B00000046788D000880B489B086
:1053840000AF7860AC4B5B6CC3F30803BB61AA4B02
:105394001B6B03F003037B61A74B1B6B1B0A03F01E
:1053A4000F0301333B61A44B1B6B03F01003FB6041
:1053B400A14B9B6CDB08C3F30C03FA6802FB03F3F9
:1053C40007EE903AF8EE677AC7ED027A3B69002B54
:1053D40000F023817B69032B62D07B69032B00F2ED
:1053E40081807B69012B24D07B69022B7AD13B69B4
:1053F40007EE903AF8EE677ADFED906A86EEA77AC8
:105404008D4B5B6CC3F3080307EE903AF8EE676AC2
:1054140097ED026ADFED8A5AC6EE257A76EEA77A10
:10542400F7EE006A77EEA67A67EE277AC7ED077A79
:105434008FE0814B9B6803F40003002B05D07E4B67
:105444009B681B0F03F00F0306E07B4BD3F8F4308B
:105454001B041B0F03F00F037A4A52F8233007EEA4
:10546400903AF8EE676A3B6907EE903AF8EE677A8D
:1054740086EEA77ABB6907EE903AF8EE676A97ED75
:10548400026ADFED6F5AC6EE257A76EEA77AF7EE5A
:10549400006A77EEA67A67EE277AC7ED077A58E0B6
:1054A4003B6907EE903AF8EE677ADFED646A86EEC0
:1054B400A77A614B5B6CC3F3080307EE903AF8EEEE
:1054C400676A97ED026ADFED5E5AC6EE257A76EEDC
:1054D400A77AF7EE006A77EEA67A67EE277AC7ED29
:1054E400077A36E0544B9B6803F40003002B05D085
:1054F400514B9B681B0F03F00F0306E04E4BD3F890
:10550400F4301B041B0F03F00F034E4A52F82330F0
:1055140007EE903AF8EE676A3B6907EE903AF8EEC8
:10552400677A86EEA77ABB6907EE903AF8EE676A67
:1055340097ED026ADFED425AC6EE257A76EEA77A37
:10554400F7EE006A77EEA67A67EE277AC7ED077A58
:1055540000BF394B1B6B03F48033002B17D0364B41
:105564005B6C5B0A03F07F0307EE903AF8EE677A10
:10557400B7EE007A37EE877AD7ED076AC6EE877AF8
:10558400FCEEE77A17EE902A7B681A6002E07B68EB
:1055940000221A60284B1B6B03F40033002B17D036
:1055A400254B5B6C1B0C03F07F0307EE903AF8EE7F
:1055B400677AB7EE007A37EE877AD7ED076AC6EED8
:1055C400877AFCEEE77A17EE902A7B685A6002E04D
:1055D4007B6800225A60184B1B6B03F48023002B5A
:1055E40017D0154B5B6C1B0E03F07F0307EE903A4C
:1055F400F8EE677AB7EE007A37EE877AD7ED076A66
:10560400C6EE877AFCEEE77A17EE902A7B689A60FA
:105614000CE07B6800229A6008E07B6800221A6034
:105624007B6800225A607B6800229A6000BF24379E
:10563400BD465DF8047B7047000C02460024744BA1
:1056440000000046788D000880B58EB000AFC7E931
:105654000001D7E90023A2F580210B4345D1A74BD4
:10566400D3F8F03003F440733B63A44BD3F8F03029
:1056740003F00203022B08D13B6BB3F5807F04D106
:105684004FF400437B6301F0FCB89C4BD3F8F0303B
:1056940003F00063B3F1006F14D13B6BB3F5007FEB
:1056A40010D1964BD3F8F03003F08053B3F1805F00
:1056B40003D1FA237B6301F0E4B84FF4FA437B632C
:1056C40001F0DFB88D4B1B6803F40033B3F5003FE2
:1056D40007D13B6BB3F5407F03D1894B7B6301F06A
:1056E400D0B800237B6301F0CCB8D7E90023A2F53E
:1056F40000510B4351D1814BD3F8E43003F0E00364
:105704003B633B6B802B35D03B6B802B41D83B6B91
:10571400602B2AD03B6B602B3BD83B6B402B09D0D2
:105724003B6B402B35D83B6B002B0CD03B6B202BB9
:1057340012D02EE007F124031846FFF753FB7B6ACF
:105744007B6301F09EB807F118031846FFF7B0FC1D
:10575400BB697B6301F095B807F10C031846FFF7AA
:105764000DFEFB687B6301F08CB84BF680337B63E2
:1057740001F087B8614B1B6803F48063B3F5806F55
:1057840003D1604B7B6301F07CB800237B6301F0A1
:1057940078B800237B6301F074B8D7E90023A2F53D
:1057A40080410B4358D1554BD3F8E43003F4E06304
:1057B4003B633B6BB3F5806F3BD03B6BB3F5806FC2
:1057C40046D83B6BB3F5407F2ED03B6BB3F5407F9F
:1057D4003ED83B6BB3F5007F0BD03B6BB3F5007F3A
:1057E40036D83B6B002B0DD03B6BB3F5807F12D0CA
:1057F4002EE007F124031846FFF7F4FA7B6A7B6373
:1058040001F03FB807F118031846FFF751FCBB69D4
:105814007B6301F036B807F10C031846FFF7AEFDC1
:10582400FB687B6301F02DB84BF680337B6301F09A
:1058340028B8324B1B6803F48063B3F5806F03D13F
:10584400304B7B6301F01DB800237B6301F019B872
:1058540000237B6301F015B8D7E90023A2F580513A
:105864000B4326D1254BD3F8E43003F400633B63A8
:10587400224B1B6803F48063B3F5806F06D13B6B46
:10588400002B03D11F4B7B6300F0FBBF1B4B1B683A
:1058940003F48063B3F5806F07D13B6BB3F5006FFE
:1058A40003D1194B7B6300F0ECBF00237B6300F052
:1058B400E8BFD7E90023A2F580110B4364D10F4B55
:1058C400D3F8E03003F040633B633B6BB3F1406FCC
:1058D4003DD03B6BB3F1406F52D83B6BB3F1006FDB
:1058E40014D03B6BB3F1006F4AD83B6B002B1FD035
:1058F4003B6BB3F1806F12D042E000BF000C024654
:1059040020A107000024F40000127A0007F1240308
:105914001846FFF767FABB6A7B6300F0B2BF07F172
:1059240018031846FFF7C4FBFB697B6300F0A9BFAB
:10593400AB4B1B6803F40053B3F5005F03D1A94BD1
:105944007B6300F09EBF00237B6300F09ABFA44BEF
:105954009B6803F40003002B05D0A14B9B681B0E2E
:1059640003F00F0306E09E4BD3F8F4301B041B0E28
:1059740003F00F039C4A52F823307B6300F081BF8D
:1059840000237B6300F07DBFD7E90023A2F500115B
:105994000B4375D1924BD3F8E43003F480433B635B
:1059A4003B6B002B5BD18E4BD3F8E03003F04063AC
:1059B4003B633B6BB3F1406F34D03B6BB3F1406F4F
:1059C40049D83B6BB3F1006F0BD03B6BB3F1006F65
:1059D40041D83B6B002B16D03B6BB3F1806F09D0E1
:1059E40039E007F124031846FFF7FCF9BB6A7B632F
:1059F40000F047BF07F118031846FFF759FBFB698E
:105A04007B6300F03EBF764B1B6803F40053B3F591
:105A1400005F03D1734B7B6300F033BF00237B63D0
:105A240000F02FBF6E4B9B6803F40003002B05D0DE
:105A34006B4B9B681B0E03F00F0306E0684BD3F817
:105A4400F4301B041B0E03F00F03674A52F8233093
:105A54007B6300F016BF00237B6300F012BF3B6B37
:105A6400B3F5804F08D107F124031846FFF7BAF9BC
:105A74007B6A7B6300F005BF00237B6300F001BFFA
:105A8400D7E90023511E0B4336D1554BD3F8E030F0
:105A940003F003033B633B6B002B04D1FEF734FBA1
:105AA400786300F0EEBE3B6B012B04D1FEF7F6F9F0
:105AB400786300F0E6BE4A4B1B6803F48063B3F5D9
:105AC400806F06D13B6B022B03D1484B7B6300F004
