:020000040800F2
:1000000000000C203D190008ED150008F31500084C
:10001000F9150008FF150008051600088D190008DD
:10002000000000000000000000000000B1E3010833
:100030000B1600080000000001E6010821BC0108C1
:100040008D1900088D190008812402088D190008F7
:100050008D1900088D1900088D1900088D190008E8
:100060008D1900088D1900088D1900088D190008D8
:100070008D1900088D1900088D1900088D190008C8
:100080008D1900088D1900088D1900088D190008B8
:100090008D1900088D190008DD160008F1160008FA
:1000A0008D190008B5160008C91600088D1900083A
:1000B0008D190008291600083D1600085116000881
:1000C000651600088D1900088D1900088D190008A3
:1000D0008D1900082D1700088D1900088D190008CA
:1000E0008D1900088D1900088D1900088D19000858
:1000F0008D1900088D1900088D1900088D19000848
:100100008D1900088D1900088D1900088D19000837
:100110008D1900088D1900088D1900088D19000827
:100120008D1900088D1900088D1900088D19000817
:100130008D1900088D1900088D1900088D19000807
:10014000A11600088D1600088D190008191700085F
:100150008D1900088D1900088D1900088D190008E7
:100160008D190008191600088D1900088D1900084E
:100170008D1900088D1900088D1900088D190008C7
:100180008D1900088D190008791600088D190008CE
:100190008D1900088D1900088D1900088D190008A7
:1001A0008D1900088D1900088D1900088D19000897
:1001B0008D1900088D1900088D1900088D19000887
:1001C0008D1900088D190008051700088D19000801
:1001D0008D1900088D1900088D1900088D19000867
:1001E0008D1900088D1900088D1900088D19000857
:1001F0008D1900088D1900088D1900088D19000847
:100200008D1900088D1900088D1900088D19000836
:100210008D1900088D1900088D1900088D19000826
:100220008D1900088D1900088D1900088D19000816
:040230008D1900081C
:1002400010B5054C237833B9044B13B1044800E0D2
:1002500000BF0123237010BDE00600200000000055
:10026000881A030808B5034B1BB10349034800E093
:1002700000BF08BD00000000E4060020881A030843
:1002800010F8012B11F8013B012A28BF9A42F7D040
:10029000D01A7047034613F8012B002AFBD1181A15
:1002A0000138704781F0004102E000BF83F0004355
:1002B00030B54FEA41044FEA430594EA050F08BF01
:1002C00090EA020F1FBF54EA000C55EA020C7FEAC5
:1002D000645C7FEA655C00F0E2804FEA5454D4EB42
:1002E0005555B8BF6D420CDD2C4480EA020281EA0C
:1002F000030382EA000083EA010180EA020281EA44
:100300000303362D88BF30BD11F0004F4FEA013195
:100310004FF4801C4CEA113102D0404261EB4101A4
:1003200013F0004F4FEA03334CEA133302D052422A
:1003300063EB430394EA050F00F0A780A4F10104E6
:10034000D5F1200E0DDB02FA0EFC22FA05F2801820
:1003500041F1000103FA0EF2801843FA05F3594106
:100360000EE0A5F120050EF1200E012A03FA0EFC85
:1003700028BF4CF0020C43FA05F3C01851EBE371AF
:1003800001F0004507D54FF0000EDCF1000C7EEBCC
:1003900000006EEB0101B1F5801F1BD3B1F5001F0A
:1003A0000CD349085FEA30004FEA3C0C04F1010429
:1003B0004FEA445212F5800F80F09A80BCF1004F52
:1003C00008BF5FEA500C50F1000041EB045141EAD4
:1003D000050130BD5FEA4C0C404141EB0101013C9D
:1003E00028BFB1F5801FE9D291F0000F04BF01468C
:1003F0000020B1FA81F308BF2033A3F10B03B3F15E
:1004000020020CDA0C3208DD02F1140CC2F10C02ED
:1004100001FA0CF021FA02F10CE002F11402D8BF4B
:10042000C2F1200C01FA02F120FA0CFCDCBF41EA17
:100430000C019040E41AA2BF01EB0451294330BDE6
:100440006FEA04041F3C1CDA0C340EDC04F11404C3
:10045000C4F1200220FA04F001FA02F340EA03009A
:1004600021FA04F345EA030130BDC4F10C04C4F1E0
:10047000200220FA02F001FA04F340EA03002946C0
:1004800030BD21FA04F0294630BD94F0000F83F40A
:10049000801306BF81F480110134013D4EE77FEAED
:1004A000645C18BF7FEA655C29D094EA050F08BF39
:1004B00090EA020F05D054EA000C04BF194610461A
:1004C00030BD91EA030F1EBF0021002030BD5FEA5E
:1004D000545C05D14000494128BF41F0004130BD86
:1004E00014F580043CBF01F5801130BD01F00045DA
:1004F00045F0FE4141F470014FF0000030BD7FEA4D
:10050000645C1ABF194610467FEA655C1CBF0B4647
:10051000024650EA013406BF52EA033591EA030F5E
:1005200041F4002130BD00BF90F0000F04BF002156
:10053000704730B54FF4806404F132044FF0000589
:100540004FF0000150E700BF90F0000F04BF002102
:10055000704730B54FF4806404F1320410F0004568
:1005600048BF40424FF000013EE700BF42004FEA63
:10057000E2014FEA31014FEA02701FBF12F07F43E0
:1005800093F07F4F81F06051704732F07F4208BF97
:10059000704793F07F4F04BF41F40021704730B59E
:1005A0004FF4607401F0004521F000411CE700BFEA
:1005B00050EA010208BF704730B54FF000050AE06D
:1005C00050EA010208BF704730B511F0004502D56E
:1005D000404261EB41014FF4806404F132045FEA70
:1005E000915C3FF4D8AE4FF003025FEADC0C18BF19
:1005F00003325FEADC0C18BF033202EBDC02C2F10B
:10060000200300FA03FC20FA02F001FA03FE40EA9C
:100610000E0021FA02F11444BDE600BF70B54FF0A0
:10062000FF0C4CF4E06C1CEA11541DBF1CEA13557E
:1006300094EA0C0F95EA0C0F00F0DEF82C4481EAE6
:10064000030621EA4C5123EA4C5350EA013518BF06
:1006500052EA033541F4801143F4801338D0A0FBF3
:1006600002CE4FF00005E1FB02E506F00042E0FBA0
:1006700003E54FF00006E1FB03569CF0000F18BFA6
:100680004EF0010EA4F1FF04B6F5007F64F540744E
:1006900004D25FEA4E0E6D4146EB060642EAC621E1
:1006A00041EA55514FEAC52040EA5E504FEACE2E4E
:1006B000B4F1FD0C88BFBCF5E06F1ED8BEF1004F51
:1006C00008BF5FEA500E50F1000041EB045170BDCD
:1006D00006F0004646EA010140EA020081EA030111
:1006E000B4EB5C04C2BFD4EB0C0541EA045170BD0D
:1006F00041F480114FF0000E013C00F3AB8014F187
:10070000360FDEBF002001F0004170BDC4F10004CF
:10071000203C35DA0C341BDC04F11404C4F1200550
:1007200000FA05F320FA04F001FA05F240EA0200AB
:1007300001F0004221F0004110EBD37021FA04F6E1
:1007400042EB06015EEA430E08BF20EAD37070BD9B
:10075000C4F10C04C4F1200500FA04F320FA05F0FA
:1007600001FA04F240EA020001F0004110EBD370FC
:1007700041F100015EEA430E08BF20EAD37070BD6C
:10078000C4F1200500FA05F24EEA020E20FA04F345
:1007900001FA05F243EA020321FA04F001F00041F4
:1007A00021FA04F220EA020000EBD3705EEA430E65
:1007B00008BF20EAD37070BD94F0000F0FD101F094
:1007C0000046400041EB010111F4801F08BF013CCD
:1007D000F7D041EA060195F0000F18BF704703F00B
:1007E0000046520043EB030313F4801F08BF013D92
:1007F000F7D043EA0603704794EA0C0F0CEA13554E
:1008000018BF95EA0C0F0CD050EA410618BF52EA07
:100810004306D1D181EA030101F000414FF000000D
:1008200070BD50EA410606BF1046194652EA43061B
:1008300019D094EA0C0F02D150EA013613D195EA8F
:100840000C0F05D152EA03361CBF104619460AD1D7
:1008500081EA030101F0004141F0FE4141F47001E1
:100860004FF0000070BD41F0FE4141F4780170BDD1
:1008700070B54FF0FF0C4CF4E06C1CEA11541DBF36
:100880001CEA135594EA0C0F95EA0C0F00F0A7F838
:10089000A4EB050481EA030E52EA03354FEA013165
:1008A00000F088804FEA03334FF0805545EA131378
:1008B00043EA12634FEA022245EA111545EA106540
:1008C0004FEA00260EF000419D4208BF964244F1D7
:1008D000FD0404F5407402D25B084FEA3202B61AF6
:1008E00065EB03055B084FEA32024FF480104FF4CA
:1008F000002CB6EB020E75EB030E22BFB61A75463E
:1009000040EA0C005B084FEA3202B6EB020E75EBD0
:10091000030E22BFB61A754640EA5C005B084FEA38
:100920003202B6EB020E75EB030E22BFB61A754605
:1009300040EA9C005B084FEA3202B6EB020E75EB10
:10094000030E22BFB61A754640EADC0055EA060ED1
:1009500018D04FEA051545EA16754FEA06164FEA14
:10096000C30343EA52734FEAC2025FEA1C1CC0D1C0
:1009700011F4801F0BD141EA00014FF000004FF04D
:10098000004CB6E711F4801F04BF01430020B4F10E
:10099000FD0C88BFBCF5E06F3FF6AFAEB5EB030CC6
:1009A00004BFB6EB020C5FEA500C50F1000041EBC3
:1009B000045170BD0EF0004E4EEA113114EB5C0490
:1009C000C2BFD4EB0C0541EA045170BD41F4801163
:1009D0004FF0000E013C90E645EA060E8DE60CEA6B
:1009E000135594EA0C0F08BF95EA0C0F3FF43BAF88
:1009F00094EA0C0F0AD150EA01347FF434AF95EA3F
:100A00000C0F7FF425AF104619462CE795EA0C0F22
:100A100006D152EA03353FF4FDAE1046194622E7EF
:100A200050EA410618BF52EA43067FF4C5AE50EAC9
:100A300041047FF40DAF52EA43057FF4EBAE12E7B9
:100A40004FF0FF3C06E000BF4FF0010C02E000BF9A
:100A50004FF0010C4DF804CD4FEA410C7FEA6C5C7D
:100A60004FEA430C18BF7FEA6C5C1BD001B050EA20
:100A7000410C0CBF52EA430C91EA030F02BF90EA0B
:100A8000020F0020704710F1000F91EA030F58BFCA
:100A9000994208BF90422CBFD8176FEAE37040F02C
:100AA000010070474FEA410C7FEA6C5C02D150EACA
:100AB000013C07D14FEA430C7FEA6C5CD6D152EA85
:100AC000033CD3D05DF8040B704700BF844610464A
:100AD00062468C461946634600E000BF01B5FFF749
:100AE000B7FF002848BF10F1000F01BD4DF808ED19
:100AF000FFF7F4FF0CBF012000205DF808FB00BFEA
:100B00004DF808EDFFF7EAFF34BF012000205DF843
:100B100008FB00BF4DF808EDFFF7E0FF94BF012090
:100B200000205DF808FB00BF4DF808EDFFF7CEFF91
:100B300094BF012000205DF808FB00BF4DF808EDD0
:100B4000FFF7C4FF34BF012000205DF808FB00BFA1
:100B50004FEA410C7FEA6C5C02D150EA013C0AD1B9
:100B60004FEA430C7FEA6C5C02D152EA033C02D1AB
:100B70004FF0000070474FF0010070474FEA41020C
:100B800012F5001215D211D56FF47873B3EB6252DF
:100B900012D94FEAC12343F0004343EA505311F006
:100BA000004F23FA02F018BF404270474FF0000098
:100BB000704750EA013005D111F0004008BF6FF0D6
:100BC000004070474FF00000704700BF4A0011D24C
:100BD00012F5001211D20DD56FF47873B3EB625297
:100BE0000ED44FEAC12343F0004343EA505323FAA3
:100BF00002F070474FF00000704750EA013002D118
:100C00004FF0FF3070474FF0000070474FEA41024D
:100C1000B2F1E04324BFB3F5001CDCF1FE5C0DD95A
:100C200001F0004C4FEAC0024CEA5070B2F1004FA4
:100C300040EB830008BF20F00100704711F0804FA7
:100C400021D113F13872BCBF01F00040704741F46C
:100C500080114FEA5252C2F11802C2F1200C10FA70
:100C60000CF320FA02F018BF40F001004FEAC12354
:100C70004FEAD32303FA0CFC40EA0C0023FA02F3F8
:100C80004FEA4303CCE77FEA625307D150EA0133CE
:100C90001EBF4FF0FE4040F44000704701F000409E
:100CA00040F0FE4040F40000704700BF7BB972B9CD
:100CB0000029BEBF00204FF0004106E008BF002819
:100CC0001CBF6FF000414FF0FF3000F003BAADF1F0
:100CD000080C6DE904CE002909DB002B1ADB00F0BB
:100CE00083F8DDF804E0DDE9022304B070474042F8
:100CF00061EB4101002B1BDB00F076F8DDF804E02E
:100D0000DDE9022304B0404261EB4101524263EB52
:100D100043037047524263EB430300F065F8DDF88C
:100D200004E0DDE9022304B0404261EB4101704779
:100D3000524263EB430300F057F8DDF804E0DDE9CD
:100D4000022304B0524263EB4303704753B94AB9DC
:100D5000002908BF00281CBF4FF0FF314FF0FF30C3
:100D600000F0B8B9ADF1080C6DE904CE00F03CF824
:100D7000DDF804E0DDE9022304B0704738B5002255
:100D8000002304460D46FFF7BBFE28B9204629463E
:100D9000BDE8384000F00AB8204605F1004100F0F7
:100DA00005F8404261EB410138BD00BFD0B50022DB
:100DB0000B4B06460F46FFF731FCFFF707FF0446D3
:100DC000FFF7B2FB0022074BFFF728FC02460B4659
:100DD00030463946FFF76AFAFFF7F8FE2146D0BDE4
:100DE0000000F03D0000F0412DE9F04F099D044660
:100DF0000F46002B48D18A42944661D9B2FA82F359
:100E000043B1C3F120019F4002FA03FC9C4020FA49
:100E100001F10F434FEA1C411FFA8CFE220CB7FB75
:100E2000F1F601FB167706FB0EF042EA074290420C
:100E300008D91CEB020206F1FF3702D2904200F201
:100E400037813E46121AA4B2B2FBF1F001FB102228
:100E500000FB0EFE44EA0244A64508D91CEB04043C
:100E600000F1FF3202D2A64500F21C81104640EA92
:100E70000640A4EB0E0400261DB1DC400023C5E9AA
:100E800000433146BDE8F08F8B4209D9002D00F0B8
:100E9000FD800026C5E9000130463146BDE8F08FEF
:100EA000B3FA83F6002E4BD18B42C0F0F28082421F
:100EB00040F2EF803046002DE3D0C5E90047E0E77F
:100EC00002B9FFDEB2FA82F3002B40F09D80891A4E
:100ED0004FEA124E97B20126200CB1FBFEF20EFB38
:100EE000121140EA014107FB02F088420FD91CEBC6
:100EF000010102F1FF382CBF4FF001094FF000094A
:100F0000884203D9B9F1000F00F0CF804246091A98
:100F1000A4B2B1FBFEF00EFB101100FB07F744EA90
:100F20000144A74208D91CEB040400F1FF3102D2AE
:100F3000A74200F2B4800846E41B40EA02409BE767
:100F4000C6F12007B34001FA06F422FA07FCF94083
:100F5000B2404CEA030C20FA07F34FEA1C491C4349
:100F60001FFA8CFE00FA06F3200CB1FBF9F809FB1E
:100F7000181140EA014108FB0EF088420FD91CEB22
:100F8000010108F1FF3A2CBF4FF0010B4FF0000BAD
:100F9000884203D9BBF1000F00F08D80D046091ABA
:100FA000A4B2B1FBF9F009FB101100FB0EFE44EAFC
:100FB00001418E4507D91CEB010100F1FF3401D23C
:100FC0008E457FD8204640EA0840A1EB0E01A0FBE9
:100FD000029841454C46C64602D306D14B4504D241
:100FE0000138B9EB020468EB0C0E002D70D01A1B0F
:100FF00061EB0E0122FA06F301FA07F7F140002631
:101000001F43C5E900713CE702FA03FCC3F120006D
:1010100001FA03F221FA00F64FEA1C4E24FA00F11D
:101020001FFA8CF79C401143B6FBFEF00A0C0EFB36
:10103000106642EA064200FB07F696420ED91CEB08
:10104000020200F1FF382CBF4FF001094FF00009F8
:10105000964202D9B9F1000F31D04046921B89B2B5
:10106000B2FBFEF60EFB162241EA024106FB07F236
:101070008A4207D91CEB010106F1FF3801D28A42EE
:1010800023D84646891A46EA004625E72E462846D2
:10109000F7E6841A61EB030301201F460BE7644463
:1010A000023849E764440238E1E6023A61442EE737
:1010B000023E6244C6E6A8F1020861446FE70238C6
:1010C0006244CBE7023861447DE7023E6144D9E7E0
:1010D0002E46D6E6704700BF80B582B000AF0B4BFE
:1010E000D3F89430094A43F00403C2F89430074B14
:1010F000D3F8943003F004037B607B6803200CF08A
:1011000037FC00BF0837BD4680BD00BF000C02465B
:1011100080B588B000AF7860114BD3F8A430104A86
:1011200043F40033C2F8A4300D4BD3F8A43003F4D9
:101130000033BB60BB680123FB6002233B610023DB
:101140007B610323BB610E23FB6107F10C0319468E
:1011500004480EF061FF00BF2037BD4680BD00BFD0
:10116000000C02460010024280B5BEB000AF7860AD
:1011700007F1E40300221A605A609A60DA601A618B
:1011800007F11803C822002118462AF0F0FC7B68FA
:101190001B685A4A934251D1594BD3F8D830584A18
:1011A00043F48053C2F8D8304FF400624FF000038C
:1011B000C7E906234FF44073C7F8983007F11803C6
:1011C000184612F0DFFE0346002B03D07E214D4867
:1011D00020F0ECFD4A4BD3F8A830494A43F4805341
:1011E000C2F8A830464BD3F8A83003F480537B6193
:1011F0007B69434BD3F88C30414A43F00403C2F877
:101200008C303F4BD3F88C3003F004033B613B69D7
:101210004FF48073C7F8E4300223C7F8E8300023A6
:10122000C7F8EC300223C7F8F0300E23C7F8F430CB
:1012300007F1E403194634480EF0EEFE7B681B68A4
:10124000324A93422CD12E4BD3F8D8302C4A43F457
:101250000063C2F8D8304FF400724FF00003C7E9C2
:1012600006234FF44063C7F8903007F1180318467F
:1012700012F088FE0346002B03D09B21214820F06A
:1012800095FD1F4BD3F8A8301D4A43F40063C2F804
:10129000A8301B4BD3F8A83003F40063FB60FB6855
:1012A0007B681B681A4A934224D14FF480624FF046
:1012B0000003C7E906234FF44023C7F8943007F131
:1012C0001803184612F05EFE0346002B03D0AA2135
:1012D0000C4820F06BFD0A4BD3F8A030084A43F0CD
:1012E0002003C2F8A030064BD3F8A03003F020034F
:1012F000BB60BB6800BFF837BD4680BD00480046F4
:10130000000C0246A01A03080008024200440046EE
:101310000094004080B5C0B000AF786007F1EC03E6
:1013200000221A605A609A60DA601A6107F120039D
:10133000C822002118462AF01AFC7B681B68784AEC
:10134000934248D14FF080024FF00003C7E90823D1
:101350000023C7F88C3007F12003184612F012FE64
:101360000346002B03D0E7216E4820F01FFD6E4B93
:10137000D3F88C306C4A43F02003C2F88C306A4BAF
:10138000D3F88C3003F02003FB61FB690323C7F81B
:10139000EC301223C7F8F0300023C7F8F4300023F4
:1013A000C7F8F8300423C7F8FC3007F1EC031946FE
:1013B0005E480EF031FE5C4BD3F89C305A4A43F441
:1013C0008003C2F89C30584BD3F89C3003F4800360
:1013D000BB61BB699EE07B681B68554A93424AD15A
:1013E0004FF480724FF00003C7E908230023C7F8C9
:1013F000903007F12003184612F0C4FD0346002B7D
:1014000004D04FF48471474820F0D0FC464BD3F809
:101410008C30454A43F04003C2F88C30424BD3F83D
:101420008C3003F040037B617B694FF4C073C7F8D5
:10143000EC301223C7F8F0300023C7F8F430002353
:10144000C7F8F8300423C7F8FC3007F1EC0319465D
:1014500038480EF0E1FD344BD3F8A830324A43F05F
:101460008003C2F8A830304BD3F8A83003F08003D3
:101470003B613B694EE07B681B682F4A934249D130
:101480004FF480024FF00003C7E908230023C7F898
:10149000943007F12003184612F074FD0346002B28
:1014A00004D040F229111F4820F080FC1E4BD3F8D5
:1014B0008C301D4A43F02003C2F88C301A4BD3F80D
:1014C0008C3003F02003FB60FB684FF44043C7F807
:1014D000EC301223C7F8F0300023C7F8F4300023B3
:1014E000C7F8F8300423C7F8FC3007F1EC031946BD
:1014F0000E480EF091FD0C4BD3F8A0300A4A43F091
:101500000203C2F8A030084BD3F8A03003F0020366
:10151000BB60BB6800BF07F58077BD4680BD00BFDC
:1015200000580040A01A0308000C024600140242B2
:1015300000280046001802420084004080B582B0B6
:1015400000AF78607B681B68224A934210D1224B1F
:10155000D3F89C30204A23F48003C2F89C30012148
:101560001E480EF031FF02211C480EF02DFF2DE029
:101570007B681B681A4A934211D1174BD3F8A830E5
:10158000154A23F08003C2F8A830802115480EF0D8
:101590001BFF4FF4807113480EF016FF16E07B68B6
:1015A0001B68114A934211D10B4BD3F8A0300A4A61
:1015B00023F00203C2F8A0304FF4804107480EF038
:1015C00003FF4FF4004105480EF0FEFE00BF083750
:1015D000BD4680BD00580040000C02460014024287
:1015E00000280046001802420084004080B400AF8A
:1015F000FEE780B400AFFEE780B400AFFEE780B442
:1016000000AFFEE780B400AFFEE780B400AF00BFDC
:10161000BD465DF8047B704780B400AF00BFBD4697
:101620005DF8047B7047000080B500AF02480CF005
:10163000FEFC00BF80BD00BF14330A2080B500AFA0
:1016400002480CF0F4FC00BF80BD00BF8C330A20C0
:1016500080B500AF02480CF0EAFC00BF80BD00BFBF
:1016600004340A2080B500AF02480CF0E0FC00BF53
:1016700080BD00BF7C340A2080B500AF02480CF06A
:10168000D6FC00BF80BD00BFC8DB092080B500AF1D
:10169000024818F02DF800BF80BD00BFF4340A20C6
:1016A00080B500AF024818F023F800BF80BD00BF2E
:1016B000B8350A2080B500AF02480EF059FA00BFD5
:1016C00080BD00BF080C002080B500AF02480EF0BE
:1016D0004FFA00BF80BD00BF140C002080B500AFE2
:1016E00002480EF045FA00BF80BD00BFF00D00209B
:1016F00080B500AF02480EF03BFA00BF80BD00BFCE
:10170000FC0D002080B500AF024810F0C5FC00BF02
:1017100080BD00BF7807002080B500AF024810F000
:10172000BBFC00BF80BD00BF0808002080B500AF33
:1017300002480AF0DDFD00BF80BD00BF3CDB092090
:1017400080B400AF01231846BD465DF8047B7047A6
:1017500080B582B000AF786039602AF07BF803462C
:1017600016221A604FF0FF3318460837BD4680BD79
:1017700080B582B000AF78604FF0FF317868FFF736
:10178000E7FFFEE780B586B000AFF860B9607A6029
:1017900000237B610AE000E000BF0146BB685A1CE1
:1017A000BA60CAB21A707B6901337B617A697B685F
:1017B0009A42F0DB7B6818461837BD4680BD80B57D
:1017C00086B000AFF860B9607A6000237B6109E001
:1017D000BB685A1CBA601B78184600E000BF7B69E2
:1017E00001337B617A697B689A42F1DB7B6818463A
:1017F0001837BD4680BD80B483B000AF78604FF02D
:10180000FF3318460C37BD465DF8047B704780B443
:1018100083B000AF786039603B684FF400525A6083
:10182000002318460C37BD465DF8047B704780B432
:1018300083B000AF7860012318460C37BD465DF8D1
:10184000047B704780B485B000AFF860B9607A60FF
:10185000002318461437BD465DF8047B704700002E
:1018600080B586B000AF7860144A154BD31A7B61FF
:101870007B693B61134B1B68002B02D1114B124A51
:101880001A60104B1A687B6813443A699A4207D26F
:1018900029F0E0FF03460C221A604FF0FF3309E005
:1018A000084B1B68FB60074B1A687B681344054AAA
:1018B0001360FB6818461837BD4680BD00000C2039
:1018C0000004000004070020C06F0A2080B400AFAD
:1018D000184BD3F88830174A43F47003C2F88830A5
:1018E000154B01221A60144B0022DA61124B0022C0
:1018F0001A62114B00225A620F4B1B680E4A23F0EA
:10190000A85323F4102313600B4B00229A620A4B56
:101910001B68094A23F480231360074B00221A65D1
:10192000044B4FF000629A6000BFBD465DF8047B37
:10193000704700BF00ED00E0000C0246DFF834D035
:10194000002103E00C4B5B58435004310B480C4B17
:1019500042189A42F6D30B4A02E0002342F8043BB5
:10196000094B9A42F9D3FFF7B1FF29F079FF20F034
:101970005BF9FEE700000C20F84803080000002097
:10198000E0060020E0060020BC6F0A20FEE7000011
:1019900080B584B000AF786039600023FB607B685D
:1019A000002B03D14FF0FF33FB604DE03B681A681A
:1019B0007B681A603B685A687B685A603B689A6823
:1019C0007B689A603B681A7B7B681A733B681A696C
:1019D0007B681A613B685A697B685A613B689A69FF
:1019E0007B689A617B681B4A1A627B681A4ADA61D3
:1019F0007B687A685A627B681B68002B03D14FF0C2
:101A0000FF33FB6020E07B681B6898470346002B90
:101A100003D04FF0FF33FB6016E07B689B68022B1E
:101A200012D17B6893F82830002B0DD10523FB726F
:101A3000FB7A1A462121786800F001FA0346002B50
:101A400002D04FF0FF33FB60FB6818461037BD46ED
:101A500080BD00BFF51E00082B1F000880B582B0B6
:101A600000AF786039607B681C333968184600F035
:101A700000FD0346002B02D04FF0FF3300E00023AF
:101A800018460837BD4680BD80B584B000AF786089
:101A900039600023FB607B681C3307F10B021146A1
:101AA000184600F027FC0346002B02D04FF0FF330E
:101AB000A0E07B681C3307F10A021146184600F0CB
:101AC000CDFA0346002B02D04FF0FF3392E0BB7AF1
:101AD0001B2B00F2878001A252F823F04D1B000857
:101AE000991B0008991B0008991B0008991B000806
:101AF000E51B0008E51B0008E51B00084D1B00085E
:101B0000991B0008991B0008991B0008E51B000899
:101B1000E51B0008E51B0008E51B00084D1B00083D
:101B2000991B0008991B0008991B0008991B0008C5
:101B3000E51B0008E51B0008E51B00084D1B00081D
:101B4000991B0008991B0008991B0008FB7A032BBE
:101B50001AD801A252F823F0691B0008711B000873
:101B6000791B0008811B00083B68244A1A6012E0B8
:101B70003B68234A1A600EE03B68224A1A600AE07A
:101B80003B68214A1A6006E03B68204A1A604FF021
:101B9000FF33FB6000BF2CE0FB7A032B1AD801A2B5
:101BA00052F823F0B51B0008BD1B0008C51B000838
:101BB000CD1B00083B68164A1A6012E03B68154AC4
:101BC0001A600EE03B680D4A1A600AE03B680C4A56
:101BD0001A6006E03B680D4A1A604FF0FF33FB6065
:101BE00000BF06E03B68094A1A604FF0FF33FB6014
:101BF00000BFFB6818461037BD4680BD23DB793F28
:101C000023DBF93F23DB794023DBF940000080BF71
:101C100023DB793E23DBF93E80B586B000AF7860E8
:101C2000396000237B617B681C3307F10B0211468E
:101C3000184600F013FA0346002B02D04FF0FF3392
:101C400089E07B681C3307F10C021146184600F04E
:101C5000A2FB0346002B02D04FF0FF337BE0FB7A60
:101C60001B2B73D801A252F823F000BFDD1C000823
:101C7000151D0008151D0008151D0008151D00087C
:101C80004D1D00084D1D00084D1D0008DD1C0008FD
:101C9000151D0008151D0008151D00084D1D000824
:101CA0004D1D00084D1D00084D1D0008DD1C0008DD
:101CB000151D0008151D0008151D0008151D00083C
:101CC0004D1D00084D1D00084D1D0008DD1C0008BD
:101CD000151D0008151D0008151D0008B7F90C306A
:101CE000002B00DA0F331B111AB23B681A80B7F9C8
:101CF0000E30002B00DA0F331B111AB23B685A80EA
:101D0000B7F91030002B00DA0F331B111AB23B6801
:101D10009A801FE0B7F90C30002B00DA03339B10D8
:101D20001AB23B681A80B7F90E30002B00DA033381
:101D30009B101AB23B685A80B7F91030002B00DABA
:101D400003339B101AB23B689A8003E04FF0FF33D5
:101D50007B6100BF7B6918461837BD4680BD00BF58
:101D600080B586B000AF786039604FF00003FB604B
:101D700007F1100319467868FFF74EFF0346002B62
:101D800002D04FF0FF333CE007F10C0319467868AE
:101D9000FFF77AFE0346002B02D04FF0FF3330E00E
:101DA000B7F9103007EE903AB8EEE77AD7ED037A3C
:101DB00067EE277AFDEEE77A17EE902A3B681A6005
:101DC000B7F9123007EE903AB8EEE77AD7ED037A1A
:101DD00067EE277AFDEEE77A17EE902A3B685A60A5
:101DE000B7F9143007EE903AB8EEE77AD7ED037AF8
:101DF00067EE277AFDEEE77A17EE902A3B689A6045
:101E0000002318461837BD4680BD80B584B000AFAA
:101E1000F8600B467A60FB72FB6803F11C00F97AEC
:101E200001237A6800F09CF80346002B02D04FF0A3
:101E3000FF3300E0002318461037BD4680BD80B553
:101E400082B000AF78600B46FB701346BB707B68B6
:101E500003F11C00BA1CF978012300F099F803463D
:101E6000002B02D04FF0FF3300E000231846083764
:101E7000BD4680BD80B584B000AF78600B46FB7076
:101E8000FB78022B02D94FF0FF3319E0FB78002BCF
:101E900006D0FB78012B01D1012302E0022300E0F0
:101EA0000023FB737B681C33FA7B1146184600F055
:101EB00030FB0346002B02D04FF0FF3300E000233D
:101EC00018461037BD4680BD80B582B000AF78603F
:101ED00039607B681C333968184600F043FA0346C2
:101EE000002B02D04FF0FF3300E0002318460837E4
:101EF000BD4680BD90B587B000AFF8607A601A46E5
:101F00000B46FB7213463B81FB687B617B695C6916
:101F10007B691B7B98B2FB7A99B23B897A68A047B0
:101F2000034618461C37BD4690BD90B587B000AF3C
:101F3000F8607A601A460B46FB7213463B81FB68D9
:101F40007B617B691C697B691B7B98B2FB7A99B2C8
:101F50003B897A68A047034618461C37BD4690BDAA
:101F600090B587B000AFF8607A601A460B46FB72F6
:101F700013463B81FB685C68FB6898683B89F97A8B
:101F80007A68A04778617B6918461C37BD4690BDCA
:101F900090B587B000AFF8607A601A460B46FB72C6
:101FA00013463B81FB681C68FB6898683B89F97A9B
:101FB0007A68A04778617B6918461C37BD4690BD9A
:101FC00080B586B000AF78600B46FB7007F1100259
:101FD000012320217868FFF7C3FF78617B69002B1C
:101FE00018D1FB789B0803F00303DAB23B7C62F361
:101FF00083033B74FB7803F00303DAB23B7C62F3A8
:1020000001033B7407F11002012320217868FFF7D8
:10201000BFFF78617B69002B07D107F10C02012318
:1020200025217868FFF79CFF78617B69002B10D130
:10203000FB781B0903F00103DAB23B7B62F38203F6
:102040003B7307F10C02012325217868FFF7A0FFFD
:1020500078617B6918461837BD4680BD80B586B06B
:1020600000AF7860396007F1100201232021786801
:10207000FFF776FF78617B69002B40F0A38007F1C2
:102080000C02012325217868FFF76AFF78613B7B0A
:10209000C3F38003DBB21A013B7CC3F38103DBB2E1
:1020A0009B0013443A7CC2F30102D2B213441B2BAF
:1020B00000F2848001A252F823F000BF4D210008F5
:1020C000452100083D210008352100082D21000888
:1020D000BD210008BD210008BD2100086D210008B8
:1020E000652100085D21000855210008BD21000878
:1020F000BD210008BD210008BD2100089521000870
:102100008D210008852100087D2100087521000827
:10211000BD210008BD210008BD210008B52100082F
:10212000AD210008A52100089D2100083B6804227C
:102130001A7048E03B6803221A7044E03B680222B0
:102140001A7040E03B6801221A703CE03B680022B4
:102150001A7038E03B680B221A7034E03B680A22A0
:102160001A7030E03B6809221A702CE03B680822A4
:102170001A7028E03B6814221A7024E03B6813228E
:102180001A7020E03B6812221A701CE03B68112292
:102190001A7018E03B6810221A7014E03B681B228A
:1021A0001A7010E03B681A221A700CE03B68192282
:1021B0001A7008E03B6818221A7004E03B68042299
:1021C0001A7000E000BF7B6918461837BD4680BD15
:1021D00080B586B000AF78600B46FB7007F1100247
:1021E000012320217868FFF7BBFE78617B69002B13
:1021F0000FD1FB7803F00F03DAB23B7C62F30713D5
:102200003B7407F11002012320217868FFF7C0FE1C
:1022100078617B69002B07D107F10C020123222191
:102220007868FFF79DFE78617B69002B10D1FB7801
:102230001B0903F00303DAB23B7B62F301033B7338
:1022400007F10C02012322217868FFF7A1FE7861D3
:102250007B6918461837BD4680BD80B584B000AF95
:1022600078600B46FB7007F1080201232121786892
:10227000FFF776FEF860FB68002B0FD1FB7803F0C8
:102280000103DAB23B7A62F3C3033B7207F108023F
:10229000012321217868FFF77BFEF860FB68184670
:1022A0001037BD4680BD80B584B000AF78600B4666
:1022B000FB7007F10802012325217868FFF750FE23
:1022C000F860FB68002B0FD1FB7803F00303DAB250
:1022D0003B7A62F305133B7207F1080201232521C3
:1022E0007868FFF755FEF860FB6818461037BD4662
:1022F00080BD000080B584B000AF7860396007F120
:102300000802012325217868FFF72AFEF8603B7A4E
:10231000C3F30113DBB2032B1AD801A252F823F046
:10232000312300083923000841230008492300080D
:102330003B6800221A700FE03B6801221A700BE024
:102340003B6802221A7007E03B6803221A7003E020
:102350003B6800221A7000BFFB6818461037BD4664
:1023600080BD00BF80B584B000AF7860396007F1F0
:102370000802012327217868FFF7F2FDF8603B7A15
:10238000C3F30003DBB21A463B681A70FB681846B9
:102390001037BD4680BD80B586B000AF786039602B
:1023A00007F10C02062328217868FFF7D9FD786130
:1023B0007B7B1AB23B681A803B68B3F900309BB252
:1023C0001B029AB23B7B9BB213449BB21AB23B688E
:1023D0001A80FA7B3B68023312B21A803B680233E0
:1023E000B3F900309BB21B029AB2BB7B9BB2134481
:1023F0009AB23B68023312B21A807A7C3B6804338B
:1024000012B21A803B680433B3F900309BB21B024E
:102410009AB23B7C9BB213449AB23B68043312B22B
:102420001A807B6918461837BD4680BD80B584B0D8
:1024300000AF7860396007F1080202232C21786828
:10244000FFF78EFDF8607B7A1AB23B681A803B6812
:10245000B3F900309BB21B029AB23B7A9BB2134491
:102460009BB21AB23B681A80FB6818461037BD460B
:1024700080BD80B584B000AF7860396001233A68D0
:102480000F217868FFF76CFDF860FB68184610377D
:10249000BD4680BD80B584B000AF78600B46FB7050
:1024A00007F10802012321217868FFF759FDF86040
:1024B000FB68002B0FD1FB7803F00103DAB23B7A03
:1024C00062F386133B7207F1080201232121786829
:1024D000FFF75EFDF860FB6818461037BD4680BD0B
:1024E00080B584B000AF7860396007F1080201233D
:1024F00021217868FFF734FDF8603B7AC3F380133D
:10250000DBB21A463B681A70FB6818461037BD46A6
:1025100080BD80B584B000AF78600B46FB7007F1DA
:102520000802012322217868FFF71AFDF860FB6892
:10253000002B0FD1FB7803F00303DAB23B7A62F38E
:1025400087133B7207F10802012322217868FFF705
:102550001FFDF860FB6818461037BD4680BD80B58A
:1025600084B000AF78600B46FB7007F108020123CE
:102570002E217868FFF7F4FCF860FB68002B0FD180
:10258000FB7803F01F03DAB23B7A62F304033B7279
:1025900007F1080201232E217868FFF7F9FCF860A3
:1025A000FB6818461037BD4680BD80B584B000AFCB
:1025B00078600B46FB7007F1080201232E21786832
:1025C000FFF7CEFCF860FB68002B0FD1FB7803F01F
:1025D0000703DAB23B7A62F347133B7207F1080252
:1025E00001232E217868FFF7D3FCF860FB681846BA
:1025F0001037BD4680BD000080B586B000AF786062
:10260000012025F08FFAB8603E4B1B6820333D4A0D
:1026100013603C4B1B681946B8681CF01DFB034651
:10262000B3F1FF3F03D1662137481FF0BFFB2021E4
:10263000B8681CF011FB0346B3F1FF3F03D17221D0
:1026400031481FF0B3FB00237B6120E07B695B0016
:102650002E4A134419462E48FFF7E8FE0346002B86
:1026600003D0932128481FF0A1FB7B695B00294A16
:10267000134419462848FFF7D9FE0346002B03D020
:10268000982121481FF092FB7B6901337B617B69B4
:102690000F2BDBD900233B6112E01C4A3B6932F966
:1026A00013301946B8681CF0D7FA0346B3F1FF3F60
:1026B00003D1A22114481FF079FB3B6901333B6130
:1026C0003B690F2BE9D90023FB6012E0114AFB683C
:1026D00032F913301946B8681CF0BEFA0346B3F15C
:1026E000FF3F03D1AB2108481FF060FBFB680133BB
:1026F000FB60FB680F2BE9D9002318461837BD464D
:1027000080BD00BFF0080020C01A03089C0800200C
:1027100024070020BC0800205C07002080B584B09E
:1027200000AF78600023FB60134825F001FEF860DD
:10273000FB68002B03D1BF2110481FF037FBFB685B
:1027400000221A60FB6801229A60FB6800225A602E
:102750000B4B186840F601030222F96825F070FA65
:102760000346012B03D0CA2104481FF01FFB00BF02
:102770001037BD4680BD00BFDC080020C01A03082A
:10278000482D0A2080B598B002AF07F13C03002223
:102790001A605A609A60DA601A614FF4026025F09C
:1027A000F3FC78657B6D002B03D1F7215D481FF0AA
:1027B000FDFA2823009330234FF40262796D5A48C2
:1027C00025F05AFD0346002B03D0FE2155481FF08B
:1027D000EDFA564BD3F88C30544A43F00403C2F858
:1027E0008C30524BD3F88C3003F004033B603B68D1
:1027F0004FF48073FB6301233B6400237B6402235B
:10280000BB6407F13C03194649480DF005FC002262
:102810004FF4807146480DF0CDFE0023BB6231239A
:1028200087F82C30434B3B62434B7B62434B7B63CB
:10283000434B3B63434BBB630023FB6033233B743D
:102840003C4B7B603C4BBB603C4BBB613C4B7B617E
:102850003C4BFB6119201AF0DBFB07F12003194602
:102860003948FFF795F80346002B02D06FF0C703F5
:1028700053E03B1D19463548FFF78AF80346002B05
:1028800008D06FF0C70348E019201AF0C1FB6FF0C1
:10289000C70342E000BF022133201EF071F8034657
:1028A000002BF1D105E019201AF0B2FB6FF0C7033D
:1028B00033E0022131201EF063F80346002BF2D1F1
:1028C000214800F0E3F80346002B02D06FF0C70365
:1028D00023E01E4800F0DAF80346002B02D06FF028
:1028E000C7031AE0012025F01DF90346184A1360BA
:1028F000174B1B68002B0FD1164B3B65386DFDF74E
:10290000C9FC01460223009301230022386D21F007
:1029100053FF6FF0C70300E0002318465837BD4649
:1029200080BD00BFC01A0308DC080020000C02466E
:1029300000080242E9080208310902081D0A0208DB
:10294000B9090208650C02080807002040070020AA
:1029500098080020E01A030880B582B000AF002379
:102960007B60164B1B78002B01D000F05FF8144BF6
:102970005B68002B03D14FF0FF337B6008E0104B06
:102980005B6898470346002B02D04FF0FF337B6013
:102990000C4B5B68002B03D14FF0FF337B6008E0EA
:1029A000084B5B6898470346002B02D04FF0FF337B
:1029B0007B607B6818460837BD4680BDEC08002068
:1029C000080700204007002080B500AF00F01AF98A
:1029D00000F054F90022114911480FF02AFB034678
:1029E000002B02D04FF0FF3316E00E480FF07CFAB8
:1029F0000346002B02D04FF0FF330DE000210848C2
:102A00000FF0B8F90346002B02D04FF0FF3303E07C
:102A1000054B01221A700023184680BD08000020D3
:102A20007807002008080020EC08002080B500AFDF
:102A3000134B1B68002B1AD0124B1B68002B16D0AF
:102A4000114B1B78002B12D00D480FF096FA03465D
:102A5000002B02D04FF0FF330FE0002109480FF0A8
:102A6000F4F90346002B04D04FF0FF3305E00023B8
:102A700003E0054B00221A700023184680BD00BFFA
:102A80000808002078070020EC08002080B592B0EC
:102A900002AF78600023FB6007F110032E220021B3
:102AA000184629F064F80023FB720123BB727B688F
:102AB0001C3301211846FFF7EDFC7B681C3307F13E
:102AC0000A0211461846FFF70BFDBB7A002BF4D122
:102AD00007F10B0319467868FEF7C0FF0346002B89
:102AE00016D0454B1B781A4607F10C03434918468C
:102AF0002AF068FA07F10C031846FDF7CBFB0146F4
:102B000007F10C00022300930123002221F054FE60
:102B1000FB7A442B19D0384B1B781A4607F10C036B
:102B2000374918462AF04EFA07F10C031846FDF70C
:102B3000B1FB014607F10C000223009301230022A0
:102B400021F03AFE4FF0FF3351E07B681C33012146
:102B50001846FFF782FB0346002B02D04FF0FF33ED
:102B600045E07B681C3300211846FFF79CFB0346B9
:102B7000002B02D04FF0FF3339E07B681C33062175
:102B80001846FFF712FD0346002B02D04FF0FF332B
:102B90002DE07B681C330F211846FFF7E0FC03464D
:102BA000002B02D04FF0FF3321E07B681C33122151
:102BB0001846FFF70DFB0346002B02D04FF0FF3302
:102BC00015E07B681C3319211846FFF7F9F9034615
:102BD000002B02D04FF0FF3309E000201AF018FA62
:102BE000054B1B780133DAB2034B1A7000231846E9
:102BF0004037BD4680BD00BFF40800200C1B030811
:102C00002C1B030880B582B000AF0023FB71184B6A
:102C1000184A1A60164B00225A60154B00229A601F
:102C2000134B4FF6FF725A61114BFF221A62104B81
:102C300000225A620E4B00229A620D4B0022DA6289
:102C40000B4B00221A630A4B00225A6308480EF00D
:102C500085FF0346FB71FB79002B04D04FF41771FD
:102C600005481FF0A3F8002318460837BD4680BD6D
:102C70007807002000480046C01A030880B500AF5E
:102C80001E4B1F4A1A601D4B00225A601B4B00222C
:102C90009A601A4B4FF6FF725A61184B40F6FF725A
:102CA0001A62164B00225A62144B00229A62134B8E
:102CB0000022DA62114B00221A63104B00225A6381
:102CC0000E480EF04BFF0346002B04D04FF4237147
:102CD0000C481FF06BF80C4A032108480FF0E2FB88
:102CE00003200AF045FE01220F2143200AF04BFE8B
:102CF00043200AF062FE0023184680BD0808002029
:102D000000440046C01A03081D27000880B584B09F
:102D100000AF786039600023FB720023FB6007F18D
:102D20000B0319467868FFF7CFF8F860FB68002BB3
:102D300001D0FB680DE0FB7A002BF0D03968786891
:102D4000FFF70EF8F860FB68002B01D0FB6800E08D
:102D5000FB6818461037BD4680BD000080B590B0B6
:102D600000AF78600023FB630023BB6300237B6319
:102D700014E0794A7B6B1344197807F108027B6BE6
:102D800013441A467868FFF740F8B863BB6B002B12
:102D900001D0BB6B49E17B6B01337B637B6B052B04
:102DA000E7D900237B6314E06B4A7B6B13441978EB
:102DB0006A4A7B6B13441B781A467868FFF73FF822
:102DC000B863BB6B002B01D0BB6B2EE17B6B013377
:102DD0007B637B6B052BE7D964201AF019F907F1A7
:102DE000100319467868FFF791FF0346002B03D0C4
:102DF0008C215B481EF0DAFF0023BB620023FB62DC
:102E000000233B6300237B631BE007F1100319469B
:102E10007868FFF77BFF0346002B03D098215048CA
:102E20001EF0C4FFBA6A3B691344BB62FA6A7B694D
:102E30001344FB623A6BBB6913443B637B6B013306
:102E40007B637B6B042BE0D9BB6A464A82FB03128F
:102E50005210DB17D31ABB62FB6A424A82FB031291
:102E60005210DB17D31AFB623B6B3E4A82FB031204
:102E70005210DB17D31A3B6301217868FEF7FAFF83
:102E8000B863BB6B002B01D0BB6BCEE064201AF0A3
:102E9000BFF807F1100319467868FFF737FF0346BC
:102EA000002B03D0AE212E481EF080FF0023FB61D3
:102EB00000233B6200237B6200237B631BE007F15E
:102EC000100319467868FFF721FF0346002B03D053
:102ED000B92123481EF06AFFFA693B691344FB617C
:102EE0003A6A7B6913443B627A6ABB6913447B622A
:102EF0007B6B01337B637B6B042BE0D9FB69194A45
:102F000082FB03125210DB17D31AFB613B6A154A8E
:102F100082FB03125210DB17D31A3B627B6A114A01
:102F200082FB03125210DB17D31A7B6200237B63F0
:102F30001DE0094A7B6B1344197807F108027B6B8B
:102F400013441B781A467868FEF779FFB863BB6BA9
:102F5000002B09D0BB6B68E0100000201800002097
:102F6000501B0308676666667B6B01337B637B6B74
:102F7000052BDED9FA69BB6AD31A13F1450F07DBBB
:102F8000FA69BB6AD31A452B02DC6FF00B03FB63B3
:102F9000FA69BB6AD31A002BB8BF5B4240F2DC521D
:102FA000934202DD6FF00B03FB633A6AFB6AD31AAC
:102FB00013F1450F07DB3A6AFB6AD31A452B02DC93
:102FC0006FF00B03FB633A6AFB6AD31A002BB8BF9E
:102FD0005B4240F2DC52934202DD6FF00B03FB6375
:102FE0007A6A3B6BD31A13F1450F07DB7A6A3B6BA6
:102FF000D31A452B02DC6FF00B03FB637A6A3B6B41
:10300000D31A002BB8BF5B4240F2DC52934202DD80
:103010006FF00B03FB63FB6B002B01D00023BB6342
:1030200000217868FEF726FFBB6B18464037BD4687
:1030300080BD00BF80B59AB000AF78600023FB73FD
:103040000023BB737B681B7887F8673000237B63A2
:10305000312387F838304B4BFB624B4B3B634B4B78
:103060003B644B4BFB634B4B7B640023BB613323C3
:103070003B77444B3B61444B7B61444B7B62444B0D
:103080003B62444BBB62192019F0C2FF97F86730CE
:10309000002B02D0012B35D069E007F12C03194633
:1030A0003D48FEF775FC0346002B08D06FF0070380
:1030B00064E0192019F0ACFF6FF007035EE000BF79
:1030C000022133201DF05CFC0346002BF1D107F1F7
:1030D0000F0319463048FEF7C1FC0346002B02D00F
:1030E0006FF007034AE0FB7B442B02D06FF007032D
:1030F00044E02948FFF732FE0346002B3AD06FF038
:1031000003033BE007F1100319462448FEF740FC97
:103110000346002B08D06FF007032FE0192019F0A9
:1031200077FF6FF0070329E000BF022131201DF077
:1031300027FC0346002BF1D107F10E03194617486F
:10314000FEF78CFC0346002B02D06FF0070315E05E
:10315000BB7B442B02D06FF007030FE00F48FFF753
:10316000FDFD0346002B07D06FF0030306E06FF070
:10317000010303E000BF00E000BF002318466837EA
:10318000BD4680BDE9080208310902081D0A02088F
:10319000B9090208650C0208080700204007002052
:1031A00090B587B000AFF8607A601A460B46FB72A4
:1031B00013463B81FB687B617B691C697B691B7AD9
:1031C00098B2FB7A99B23B897A68A04703461846C1
:1031D0001C37BD4690BD90B587B000AFF8607A60EF
:1031E0001A460B46FB7213463B81FB687B617B6989
:1031F000DC687B691B7A98B2FB7A99B23B897A6862
:10320000A047034618461C37BD4690BD80B584B024
:1032100000AF786039600023FB607B68002B03D12E
:103220004FF0FF33FB6031E03B681A687B681A603F
:103230003B685A687B685A603B681A7A7B681A72E6
:103240003B68DA687B68DA603B681A697B681A61F8
:103250003B685A697B685A617B680F4ADA617B6810
:103260000E4A9A617B687A681A627B681B68002B39
:1032700003D14FF0FF33FB6008E07B681B68984781
:103280000346002B02D04FF0FF33FB60FB6818466B
:103290001037BD4680BD00BFA1310008D7310008FE
:1032A00080B582B000AF00237B6001224FF4005153
:1032B00003480DF07FF97B6818460837BD4680BD8E
:1032C0000014024280B582B000AF00237B60002270
:1032D0004FF4005103480DF06DF97B68184608372C
:1032E000BD4680BD0014024290B583B000AF0023FC
:1032F0007B6000233B8060233B7021237B700A4B63
:103300009C69094B186A39783B465A1C0123A0472F
:1033100078607B68002B01D07B6800E07B681846F2
:103320000C37BD4690BD00BF000900200000000022
:103330002DE9B04FADF5087D18AF0023C7F8B431C3
:103340000023A7F8B03107F5BE73342200211846D8
:1033500028F00DFC602387F8B031212387F8B131C4
:10336000694B9C69684B186A97F8B01107F5D873D8
:103370005A1C0123A047C7F8B401D7F8B431002B79
:1033800002D0D7F8B431B4E1192019F041FE00237E
:10339000C7F8BC3120E0D7F8BC31DBB287F8B031D8
:1033A000FF2387F8B131584B9C69574B186A97F83F
:1033B000B01107F5D8735A1C0123A047C7F8B40110
:1033C000D7F8B431002B02D0D7F8B43191E1D7F857
:1033D000BC310133C7F8BC31D7F8BC310C2BDADD76
:1033E0000F2387F8B031FF2387F8B131464B9C6932
:1033F000454B186A97F8B01107F5D8735A1C01238A
:10340000A047C7F8B401D7F8B431002B02D0D7F8E1
:10341000B4316EE1102387F8B031072387F8B1315A
:10342000394B9C69384B186A97F8B01107F5D87377
:103430005A1C0123A047C7F8B401D7F8B431002BB8
:1034400002D0D7F8B43154E1112387F8B031CF233B
:1034500087F8B1312C4B9C692B4B186A97F8B01147
:1034600007F5D8735A1C0123A047C7F8B401D7F851
:10347000B431002B02D0D7F8B4313AE1142019F05E
:10348000C7FD1023C7F8B8316EE00023A7F8B231AA
:1034900007F5E073A3F2711300221A70122387F864
:1034A000B031D7F8B831DBB287F8B131164B9C692F
:1034B000154B186A97F8B01107F5D8735A1C0123F9
:1034C000A047C7F8B401D7F8B431002B02D0D7F821
:1034D000B4310EE1012019F09BFD132387F8B031C0
:1034E000094BDC69084B186A97F8B01107F14F02D5
:1034F0000123A047C7F8B401D7F8B431002B05D099
:10350000D7F8B431F5E000BF00090020D7F8B83192
:103510009BB2103BA7F8B23107F5E073A3F2711329
:103520001B7807EE903AF8EE677A17EE900AFDF7EF
:103530001DF875A3D3E90023FDF770F802460B468A
:10354000B7F8B24110461946FDF760FB0246A300EA
:1035500003F5BC7307F148010B44443B1A60D7F8EC
:10356000B8310133C7F8B831D7F8B8311C2B8CDD2E
:1035700007F5E073A3F5B87300221A6004334FF423
:1035800094720021184628F0F2FAD7F87C311846D8
:10359000FCF7ECFFC7E91001D7F880311846FCF7BB
:1035A000E5FFC7E90E01D7F884311846FCF7DEFFC6
:1035B000C7E90C01D7F888311846FCF7D7FFC7E9EF
:1035C0000A01D7F88C311846FCF7D0FFC7E908018B
:1035D000D7F890311846FCF7C9FFC7E90601D7F8BC
:1035E00094311846FCF7C2FFC7E90401D7F89831B7
:1035F0001846FCF7BBFFC7E90201D7F89C31184613
:10360000FCF7B4FFC7E90001D7F8A0311846FCF772
:10361000ADFF82468B46D7F8A4311846FCF7A6FFCB
:1036200080468946D7F8A8311846FCF79FFF044624
:103630000D46D7F8AC311846FCF798FF02460B460A
:1036400007F15000CDE91623CDE91445CDE91289E3
:10365000CDE910AB97ED007B8DED0E7B97ED027BF6
:103660008DED0C7B97ED047B8DED0A7B97ED067B52
:103670008DED087B97ED087B8DED067B97ED0A7B42
:103680008DED047B97ED0C7B8DED027B97ED0E7B32
:103690008DED007BD7E91023194929F093FC07F140
:1036A00050031846FCF7F6FD014607F150000223CF
:1036B00000930123002221F07FF8602387F8B031C6
:1036C000212387F8B1310F4B9C690E4B186A97F88C
:1036D000B01107F5D8735A1C0123A047C7F8B401ED
:1036E000D7F8B431002B02D0D7F8B43101E0D7F8C5
:1036F000B431184607F5E077BD46BDE8B08F00BF8E
:10370000AC1C030800090020CDCCCCCCCC4C3B40F9
:1037100080B588B000AF0A23FB61FFF7C1FD982395
:103720003B73164B7B60164BBB60164B7B61164B95
:103730003B61164BBB613B1D19461548FFF766FD03
:103740000346002B0DD06FF0070313E0FB695A1EF0
:10375000FA61002B02D16FF003030BE0192019F07E
:1037600057FC42F2107198201DF0DAF90346002B45
:10377000ECD1002318462037BD4680BD890A0208D7
:10378000D10A0208BD0B0208590B0208650C020899
:103790000009002080B500AFFFF794FD0023184614
:1037A00080BD000080B586B000AFF860B9601346F8
:1037B000FB710023FB750023BB7500237B75BB6881
:1037C000423B172B56D801A252F823F0513800087B
:1037D0007538000875380008753800087538000815
:1037E0004938000875380008753800087538000831
:1037F0007538000875380008593800087538000811
:103800007538000875380008753800084138000818
:1038100075380008753800087538000875380008D4
:103820002D3800087538000867380008FB794033E8
:10383000FB75FB79803BBB75FB7940337B7519E0E9
:10384000FB79403BFB7515E0FB79803BBB7511E0D4
:10385000FB79403B7B750DE0FB79803BFB75FB7989
:1038600040337B7506E0FB794033FB75FB79803B89
:10387000BB7500BFFB68012B0BD0FB68312B08D058
:10388000FB684C2B05D0FB68552B02D0FB68412B05
:1038900011D1FB7D01220021002000F073F8BB7DD7
:1038A00001220021012000F081F97B7D012200210D
:1038B000022000F0F1F8FB68022B0BD0FB68322BE2
:1038C00008D0FB68522B05D0FB68552B02D0FB6853
:1038D000412B11D1FB7D02220021002000F052F883
:1038E000BB7D02220021012000F060F97B7D0222D5
:1038F0000021022000F0D0F8FB68032B0BD0FB68FE
:10390000332B08D0FB68522B05D0FB68442B02D028
:10391000FB68412B11D1FB7D03220021002000F028
:1039200031F8BB7D03220021012000F03FF97B7DAF
:1039300003220021022000F0AFF8FB68042B0BD01B
:10394000FB68342B08D0FB684C2B05D0FB68442B5C
:1039500002D0FB68412B11D1FB7D04220021002005
:1039600000F010F8BB7D04220021012000F01EF9B8
:103970007B7D04220021022000F08EF800BF183762
:10398000BD4680BD90B585B000AF044608461146DF
:103990001A462346FB710346BB710B467B711346E7
:1039A0003B710023FB60BB79012B0DD1394B9C6926
:1039B000384B186A3A1DF9790123A047F860FB6873
:1039C000002B01D0FB6860E07B79013B032B4AD8D8
:1039D00001A252F823F000BFE9390008053A0008B7
:1039E000213A00083D3A00082A4B9C69294B186A85
:1039F0003A1D01230021A047F860FB68002B2BD063
:103A0000FB6842E0234B9C69224B186A3A1D012354
:103A10000321A047F860FB68002B1FD0FB6834E04F
:103A20001C4B9C691B4B186A3A1D01230621A047B9
:103A3000F860FB68002B13D0FB6826E0154B9C69EF
:103A4000144B186A3A1D01230921A047F860FB684E
:103A5000002B07D0FB6818E000BF04E000BF02E0C5
:103A600000BF00E000BFCF23FB720A4B9C69094BEB
:103A7000186A07F10B0201231121A047F860FB68C7
:103A8000002B01D0FB6800E0FB6818461437BD46E8
:103A900090BD00BF0009002090B585B000AF04467E
:103AA000084611461A462346FB710346BB710B4676
:103AB0007B7113463B710023FB60BB79012B0DD159
:103AC000394B9C69384B186A3A1DF9790123A04794
:103AD000F860FB68002B01D0FB6860E07B79013B5C
:103AE000032B4AD801A252F823F000BFFD3A000888
:103AF000193B0008353B0008513B00082A4B9C69E4
:103B0000294B186A3A1D01230221A047F860FB687F
:103B1000002B2BD0FB6842E0234B9C69224B186A98
:103B20003A1D01230521A047F860FB68002B1FD038
:103B3000FB6834E01C4B9C691B4B186A3A1D01233F
:103B40000821A047F860FB68002B13D0FB6826E033
:103B5000154B9C69144B186A3A1D01230B21A04791
:103B6000F860FB68002B07D0FB6818E000BF04E09A
:103B700000BF02E000BF00E000BFCF23FB720A4B92
:103B80009C69094B186A07F10B0201231121A04718
:103B9000F860FB68002B01D0FB6800E0FB6818466A
:103BA0001437BD4690BD00BF0009002090B585B018
:103BB00000AF0446084611461A462346FB710346E9
:103BC000BB710B467B7113463B710023FB60BB79D5
:103BD000012B0DD1394B9C69384B186A3A1DF97984
:103BE0000123A047F860FB68002B01D0FB6860E070
:103BF0007B79013B032B4AD801A252F823F000BF86
:103C0000113C00082D3C0008493C0008653C0008B8
:103C10002A4B9C69294B186A3A1D01230121A047B0
:103C2000F860FB68002B2BD0FB6842E0234B9C69BB
:103C3000224B186A3A1D01230421A047F860FB6853
:103C4000002B1FD0FB6834E01C4B9C691B4B186A8F
:103C50003A1D01230721A047F860FB68002B13D011
:103C6000FB6826E0154B9C69144B186A3A1D01232A
:103C70000A21A047F860FB68002B07D0FB6818E01A
:103C800000BF04E000BF02E000BF00E000BFCF23A0
:103C9000FB720A4B9C69094B186A07F10B0201235E
:103CA0001121A047F860FB68002B01D0FB6800E001
:103CB000FB6818461437BD4690BD00BF00090020C0
:103CC00080B500AF424B1B79022B3ED0022B58DC53
:103CD000002B02D0012B1CD053E03E4B1B78002B55
:103CE0006BD0002257213120FFF75CFD00225721C5
:103CF0003220FFF757FD002257213320FFF752FDF6
:103D0000002257213420FFF74DFD324B00221A705C
:103D100053E0304B1B78012B51D0582252213120D7
:103D2000FFF740FD002257213220FFF73BFD002224
:103D300057213320FFF736FD002257213420FFF7AB
:103D400031FD244B01221A7039E0224B1B78022BE3
:103D500037D0682252213120FFF724FD68225221FA
:103D60003220FFF71FFD682252213320FFF71AFD92
:103D7000682252213420FFF715FD164B02221A70DB
:103D80001FE0144B1B780B2B1DD0782257213120BC
:103D9000FFF708FD782257213220FFF703FD782234
:103DA00057213320FFF7FEFC782257213420FFF7FC
:103DB000F9FC084B0B221A7005E000BF04E000BFBD
:103DC00002E000BF00E000BF0023184680BD00BF36
:103DD000F80800201E00002080B582B000AF00234C
:103DE0007B60FFF781FAFFF7A3FA78607B681846DB
:103DF0000837BD4680BD80B582B000AF00237B6030
:103E0000FFF772FA1C23012200210120FFF7CEFEEA
:103E1000642019F0FDF81C23022200210120FFF785
:103E2000C5FE642019F0F4F81C23032200210120B0
:103E3000FFF7BCFE642019F0EBF81C2304220021DC
:103E40000120FFF7B3FE642019F0E2F8FFF74CFA07
:103E50001C23012200210020FFF794FD642019F0AB
:103E6000D7F81C23022200210020FFF78BFD6420DD
:103E700019F0CEF81C23032200210020FFF782FD59
:103E8000642019F0C5F81C23042200210020FFF74C
:103E900079FD642019F0BCF8FFF726FA1C230122F3
:103EA00000210220FFF7F8FD642019F0B1F81C236F
:103EB000022200210220FFF7EFFD642019F0A8F88C
:103EC0001C23032200210220FFF7E6FD642019F0E5
:103ED0009FF81C23042200210220FFF7DDFDFFF7DD
:103EE00003FA7B6818460837BD4680BD80B584B0AC
:103EF00000AF78600023FB60FFF70AFCFFF77BFF51
:103F0000FFF76AFFFFF746FCFB6818461037BD460F
:103F100080BD000080B584B000AF786039600023B8
:103F2000FB607B68002B03D14FF0FF33FB6031E077
:103F30003B681A687B681A603B685A687B685A60FD
:103F40003B681A7A7B681A723B68DA687B68DA60C9
:103F50003B681A697B681A613B685A697B685A61D9
:103F60007B680F4ADA617B680E4A9A617B687A68DF
:103F70001A627B681B68002B03D14FF0FF33FB6094
:103F800008E07B681B6898470346002B02D04FF07F
:103F9000FF33FB60FB6818461037BD4680BD00BF8D
:103FA000DD4400081345000880B582B000AF78609A
:103FB00039607B6818333968184600F055FD0346B0
:103FC000002B02D04FF0FF3300E0002318460837E3
:103FD000BD4680BD80B584B000AF786039600023F5
:103FE000FB607B68183307F10B021146184600F09E
:103FF00001FB0346002B02D04FF0FF3323E0FB7A96
:10400000032B1BD801A252F823F000BF1D4000086B
:1040100035400008254000082D4000083B680C4A48
:104020001A600FE03B680B4A1A600BE03B680A4AD3
:104030001A6007E03B68094A1A6003E04FF0FF335B
:10404000FB6000BFFB6818461037BD4680BD00BF4F
:1040500023DB793D23DBF93D23DB793E23DBF93E8E
:1040600080B586B000AF786039604FF00003FB6028
:104070007B68183307F110021146184600F095FCD2
:104080000346002B02D04FF0FF333CE007F10C0356
:1040900019467868FFF79EFF0346002B02D04FF0C9
:1040A000FF3330E0B7F9103007EE903AB8EEE77A18
:1040B000D7ED037A67EE277AFDEEE77A17EE902ABE
:1040C0003B681A60B7F9123007EE903AB8EEE77A1B
:1040D000D7ED037A67EE277AFDEEE77A17EE902A9E
:1040E0003B685A60B7F9143007EE903AB8EEE77AB9
:1040F000D7ED037A67EE277AFDEEE77A17EE902A7E
:104100003B689A60002318461837BD4680BD000002
:1041100080B584B000AF786039600023FB607B68B5
:10412000183307F10B021146184600F0E7FA034670
:10413000002B02D04FF0FF332DE0FB7A062B25D861
:1041400001A252F823F000BF6D410008654100084C
:10415000754100088D4100087D4100088D4100082F
:10416000854100083B680E4A1A6013E03B680D4A1F
:104170001A600FE03B680C4A1A600BE03B680B4A80
:104180001A6007E03B680A4A1A6003E04FF0FF3309
:10419000FB6000BFFB6818461037BD4680BD00BFFE
:1041A00000008C4000000C4100008C4100000C42DB
:1041B00000008C4280B586B000AF786039607B68C3
:1041C000183307F110021146184600F0A3FB03460E
:1041D000002B02D04FF0FF333CE007F10C031946EF
:1041E0007868FFF795FF0346002B02D04FF0FF33AE
:1041F00030E0B7F9103007EE903AB8EEE77AD7ED35
:10420000037A67EE277AFDEEE77A17EE902A3B688D
:104210001A60B7F9123007EE903AB8EEE77AD7EDA8
:10422000037A67EE277AFDEEE77A17EE902A3B686D
:104230005A60B7F9143007EE903AB8EEE77AD7ED46
:10424000037A67EE277AFDEEE77A17EE902A3B684D
:104250009A60002318461837BD4680BD80B584B0EB
:1042600000AFF8600B467A60FB72FB6803F1180040
:10427000F97A01237A6800F067F90346002B02D02F
:104280004FF0FF3300E0002318461037BD4680BDD5
:1042900080B582B000AF78600B46FB701346BB70F0
:1042A0007B6803F11800BA1CF978012300F064F967
:1042B0000346002B02D04FF0FF3300E000231846E6
:1042C0000837BD4680BD80B584B000AF78600B462E
:1042D000FB70FB78002B0BD0FB78012B06D0FB7812
:1042E000022B01D1022304E0032302E0012300E0BA
:1042F0000023FB737B681833FA7B1146184600F0E5
:1043000003FC0346002B02D04FF0FF3300E00023F4
:1043100018461037BD4680BD80B582B000AF7860CA
:1043200039607B6818333968184600F0C1FA0346D3
:10433000002B02D04FF0FF3300E00023184608376F
:10434000BD4680BD80B584B000AF78600B46FB7081
:10435000FB78002B0BD0FB78012B06D0FB78022BCF
:1043600001D1032304E0042302E0012300E0002341
:10437000FB737B681833FA7B1146184600F0EAFBA2
:104380000346002B02D04FF0FF3300E00023184615
:104390001037BD4680BD80B582B000AF786039600F
:1043A0007B6818333968184600F09BFA0346002BE7
:1043B00002D04FF0FF3300E0002318460837BD4617
:1043C00080BD000080B584B000AF786087ED000A42
:1043D000D7ED007AB2EE097AF4EEC77AF1EE10FA70
:1043E00001D8012358E0D7ED007AB3EE0A7AF4EE53
:1043F000C77AF1EE10FA01D802234DE0D7ED007A2A
:104400009FED2F7AF4EEC77AF1EE10FA01D803236C
:1044100042E0D7ED007A9FED2B7AF4EEC77AF1EE09
:1044200010FA01D8042337E0D7ED007A9FED267A01
:10443000F4EEC77AF1EE10FA01D805232CE0D7ED9F
:10444000007A9FED227AF4EEC77AF1EE10FA01D8E5
:10445000062321E0D7ED007A9FED1D7AF4EEC77AAE
:10446000F1EE10FA01D8072316E0D7ED007A9FEDA0
:10447000197AF4EEC77AF1EE10FA01D808230BE0AE
:10448000D7ED007A9FED147AF4EEC77AF1EE10FAC8
:1044900001D8092300E00A23FB737B681833FA7BF9
:1044A0001146184600F05CFC0346002B02D04FF08A
:1044B000FF3300E0002318461037BD4680BD00BF23
:1044C000000050420000D042000050430000D043A2
:1044D000004050440080CF440020504590B587B044
:1044E00000AFF8607A601A460B46FB7213463B81B8
:1044F000FB687B617B691C697B691B7A98B2FB7ADC
:1045000099B23B897A68A047034618461C37BD46D6
:1045100090BD90B587B000AFF8607A601A460B4640
:10452000FB7213463B81FB687B617B69DC687B69BE
:104530001B7A98B2FB7A99B23B897A68A047034606
:1045400018461C37BD4690BD90B587B000AFF860E7
:104550007A601A460B46FB7213463B81FB685C6827
:10456000FB6898683B89F97A7A68A04778617B692B
:1045700018461C37BD4690BD90B587B000AFF860B7
:104580007A601A460B46FB7213463B81FB681C6837
:10459000FB6898683B89F97A7A68A04778617B69FB
:1045A00018461C37BD4690BD80B584B000AF78601A
:1045B0000B46FB7007F10802012310217868FFF712
:1045C000C3FFF860FB68002B0FD1FB7803F00303F7
:1045D000DAB23B7A62F383033B7207F108020123EC
:1045E00010217868FFF7C8FFF860FB68184610379D
:1045F000BD4680BD80B584B000AF7860396007F1FA
:104600000802012310217868FFF79EFFF8603B7ACB
:10461000C3F38103DBB2032B1AD801A252F823F0B3
:10462000314600083946000841460008494600085E
:104630003B6800221A700FE03B6801221A700BE001
:104640003B6802221A7007E03B6803221A7003E0FD
:104650003B6804221A7000BFFB6818461037BD463D
:1046600080BD00BF80B584B000AF78600B46FB70A2
:1046700007F10802012310217868FFF765FFF86051
:10468000FB68002B0FD1FB7803F00F03DAB23B7A03
:1046900062F307133B7207F10802012310217868C7
:1046A000FFF76AFFF860FB6818461037BD4680BD0B
:1046B00080B584B000AF78600B46FB7007F108024C
:1046C000012311217868FFF73FFFF860FB68002B9A
:1046D0000FD1FB7803F00703DAB23B7A62F34303AE
:1046E0003B7207F10802012311217868FFF744FFAC
:1046F000F860FB6818461037BD4680BD80B584B0B1
:1047000000AF7860396007F1080201231121786851
:10471000FFF71AFFF8603B7AC3F34203DBB2062BC4
:1047200024D801A252F823F0454700084D4700085D
:10473000554700086D4700085D4700086D470008B1
:10474000654700083B6800221A7013E03B680122AD
:104750001A700FE03B6802221A700BE03B680422DB
:104760001A7007E03B6806221A7003E03B680722D4
:104770001A7000BFFB6818461037BD4680BD00BFE9
:1047800080B584B000AF78600B46FB7007F108027B
:10479000012311217868FFF7D7FEF860FB68002B32
:1047A0000FD1FB7803F00F03DAB23B7A62F3071301
:1047B0003B7207F10802012311217868FFF7DCFE44
:1047C000F860FB6818461037BD4680BD80B584B0E0
:1047D00000AF78600B46FB7007F10802012312213D
:1047E0007868FFF7B1FEF860FB68002B0FD1FB780B
:1047F00003F00103DAB23B7A62F386133B7207F1EE
:104800000802012312217868FFF7B6FEF860FB6802
:1048100018461037BD4680BD80B584B000AF7860C3
:104820000B46FB7007F10802012315217868FFF79A
:104830008BFEF860FB68002B0FD1FB7803F00103BF
:10484000DAB23B7A62F304133B7207F108020123E8
:1048500015217868FFF790FEF860FB68184610375E
:10486000BD4680BD80B584B000AF78600B46FB705C
:1048700007F10802012316217868FFF765FEF8604A
:10488000FB68002B0FD1FB7803F00103DAB23B7A0F
:1048900062F3C7133B7207F10802012316217868FF
:1048A000FFF76AFEF860FB6818461037BD4680BD0A
:1048B00080B584B000AF7860396007F10802012349
:1048C0001E217868FFF740FEF8603B7AC3F30003CF
:1048D000DBB21A463B681A70FB6818461037BD46B3
:1048E00080BD80B584B000AF7860396007F1080200
:1048F00001231E217868FFF727FEF8603B7AC3F397
:104900004003DBB21A463B681A70FB681846103742
:10491000BD4680BD80B586B000AF7860396007F1D4
:104920000C02062322217868FFF70EFE78617B7B5C
:104930001AB23B681A803B68B3F900309BB21B0285
:104940009AB23B7B9BB213449BB21AB23B681A806B
:10495000FA7B3B68023312B21A803B680233B3F928
:1049600000309BB21B029AB2BB7B9BB213449AB23B
:104970003B68023312B21A807A7C3B68043312B26D
:104980001A803B680433B3F900309BB21B029AB221
:104990003B7C9BB213449AB23B68043312B21A8038
:1049A0007B6918461837BD4680BD80B586B000AF1C
:1049B0007860396007F10C02062328217868FFF738
:1049C000C3FD78617B7B1AB23B681A803B68B3F900
:1049D00000309BB21B029AB23B7B9BB213449BB24A
:1049E0001AB23B681A80FA7B3B68023312B21A8013
:1049F0003B680233B3F900309BB21B029AB2BB7B17
:104A00009BB213449AB23B68023312B21A807A7C8A
:104A10003B68043312B21A803B680433B3F90030A8
:104A20009BB21B029AB23B7C9BB213449AB23B6886
:104A3000043312B21A807B6918461837BD4680BD10
:104A400080B586B000AFF860B9601346FB71FB79A2
:104A50009BB2BA683E21F868FFF776FD78617B6902
:104A600018461837BD4680BD80B584B000AF786069
:104A7000396001233A680F217868FFF765FDF86017
:104A8000FB6818461037BD4680BD80B584B000AFC6
:104A900078600B46FB7007F1080201231221786849
:104AA000FFF752FDF860FB68002B0FD1FB7803F095
:104AB0000103DAB23B7A62F300033B7207F10802AA
:104AC000012312217868FFF757FDF860FB6818464C
:104AD0001037BD4680BD80B584B000AF78603960C6
:104AE00007F10802012312217868FFF72DFDF86015
:104AF0003B7AC3F30003DBB21A463B681A70FB68CB
:104B000018461037BD4680BD80B584B000AF7860D0
:104B10000B46FB7007F10802012314217868FFF7A8
:104B200013FDF860FB68002B0FD1FB7803F0030343
:104B3000DAB23B7A62F301033B7207F10802012308
:104B400014217868FFF718FDF860FB6818461037E5
:104B5000BD4680BD80B584B000AF78600B46FB7069
:104B600007F10802012314217868FFF7EDFCF860D3
:104B7000FB68002B0FD1FB7803F00303DAB23B7A1A
:104B800062F383033B7207F1080201231421786862
:104B9000FFF7F2FCF860FB6818461037BD4680BD91
:104BA00080B586B000AF78600B46FB7007F110024D
:104BB000012310217868FFF7C7FC78617B69002B1F
:104BC0002DD1FB7803F00103DAB23B7C62F34103A1
:104BD0003B7407F11002012310217868FFF7CCFC29
:104BE00078617B69002B1AD107F10C020123172190
:104BF0007868FFF7A9FC78617B69002B0FD13B7BBC
:104C00006FF3C7133B733B7B6FF382033B7307F177
:104C10000C02012317217868FFF7AEFC78617B69ED
:104C200018461837BD4680BD80B586B000AF7860A5
:104C3000396007F1100201233A217868FFF784FCFC
:104C400078617B69002B14D107F10C0201233B2111
:104C50007868FFF779FC78613B7BC3F30203DBB232
:104C60009BB21B029AB23B7C9BB213449AB23B6844
:104C70001A807B6918461837BD4680BD80B584B060
:104C800000AF78600B46FB7007F108020123082192
:104C90007868FFF759FCF860FB68002B0FD1FB78B0
:104CA00003F00703DAB23B7A62F302033B7207F1C7
:104CB0000802012308217868FFF75EFCF860FB68B2
:104CC00018461037BD4680BD80B584B000AF78600F
:104CD0000B46FB7007F10802012308217868FFF7F3
:104CE00033FCF860FB68002B0FD1FB7803F007035F
:104CF000DAB23B7A62F3C5033B7207F10802012383
:104D000008217868FFF738FCF860FB681846103710
:104D1000BD4680BD80B584B000AF78600B46FB70A7
:104D200007F1080201230A217868FFF70DFCF860FB
:104D3000FB68002B0FD1FB7803F00703DAB23B7A54
:104D400062F302033B7207F1080201230A2178682B
:104D5000FFF712FCF860FB6818461037BD4680BDAF
:104D600080B584B000AF78600B46FB7007F1080295
:104D700001230A217868FFF7E7FBF860FB68002B46
:104D80000FD1FB7803F00F03DAB23B7A62F3C6036C
:104D90003B7207F1080201230A217868FFF7ECFB58
:104DA000F860FB6818461037BD4680BD80B584B0FA
:104DB00000AF786087ED000AD7ED007AB2EE097A8D
:104DC000F4EEC77AF1EE10FA01D8012358E0D7EDDE
:104DD000007AB3EE0A7AF4EEC77AF1EE10FA01D84F
:104DE00002234DE0D7ED007A9FED2F7AF4EEC77ADB
:104DF000F1EE10FA01D8032342E0D7ED007A9FEDDF
:104E00002B7AF4EEC77AF1EE10FA01D8042337E0DA
:104E1000D7ED007A9FED267AF4EEC77AF1EE10FA1C
:104E200001D805232CE0D7ED007A9FED227AF4EE2D
:104E3000C77AF1EE10FA01D8062321E0D7ED007A07
:104E40009FED1D7AF4EEC77AF1EE10FA01D8072330
:104E500016E0D7ED007A9FED197AF4EEC77AF1EEFD
:104E600010FA01D808230BE0D7ED007A9FED147AF1
:104E7000F4EEC77AF1EE10FA01D8092300E00A2314
:104E8000FB737B681833FA7B11461846FFF7EAFB81
:104E90000346002B02D04FF0FF3300E000231846FA
:104EA0001037BD4680BD00BF000050420000D04218
:104EB000000050430000D043004050440080CF44E5
:104EC0000020504580B584B000AF786087ED000ABF
:104ED000D7ED007AB2EE097AF4EEC77AF1EE10FA65
:104EE00001D8012358E0D7ED007AB3EE0A7AF4EE48
:104EF000C77AF1EE10FA01D802234DE0D7ED007A1F
:104F00009FED2F7AF4EEC77AF1EE10FA01D8032361
:104F100042E0D7ED007A9FED2B7AF4EEC77AF1EEFE
:104F200010FA01D8042337E0D7ED007A9FED267AF6
:104F3000F4EEC77AF1EE10FA01D805232CE0D7ED94
:104F4000007A9FED227AF4EEC77AF1EE10FA01D8DA
:104F5000062321E0D7ED007A9FED1D7AF4EEC77AA3
:104F6000F1EE10FA01D8072316E0D7ED007A9FED95
:104F7000197AF4EEC77AF1EE10FA01D808230BE0A3
:104F8000D7ED007A9FED147AF4EEC77AF1EE10FABD
:104F900001D8092300E00A23FB737B681833FA7BEE
:104FA00011461846FFF7ECFB0346002B02D04FF0EA
:104FB000FF3300E0002318461037BD4680BD00BF18
:104FC000000050420000D042000050430000D04397
:104FD000004050440080CF440020504580B582B04E
:104FE00000AF78607B6893F82530002B05D17B6893
:104FF00093F82630002B00F090807B681833012155
:105000001846FFF742FD7B6818334D491846FFF7F5
:1050100062FD4B4B1B78002BF5D17B6893F8253054
:10502000002B0BD07B68183300211846FFF7F4FBE8
:105030007B68183302211846FFF7B6FA7B6893F8AD
:105040002630002B0BD07B68183300211846FFF761
:1050500009FC7B68183300211846FFF729FB7B68A1
:10506000183301211846FFF7B1FB7B681833002184
:105070001846FFF74FFE7B6893F82530002B06D0CB
:105080007B68183301211846FFF7F8FD05E07B68BF
:10509000183300211846FFF7F1FD7B6893F826309E
:1050A000002B06D07B68183301211846FFF70CFE51
:1050B00005E07B68183300211846FFF705FE9FEDD9
:1050C000210A7868FFF77EF97B6893F82530002B7A
:1050D0000BD09FED1C0A7868FFF768FE7B681833D9
:1050E00000211846FFF75CFD05E07B6818330021BE
:1050F0001846FFF7B7FA7B6893F82630002B05D0E7
:105100009FED100A7868FFF7DDFE0CE07B6818332E
:1051100000211846FFF734FB05E07B6818330121B6
:105120001846FFF779FB7B68012283F82420064AA2
:105130007B681360002318460837BD4680BD00BF5A
:10514000F00B002000005042CC0B002090B58BB03B
:1051500002AF404B1B68002B42D14FF4026023F09A
:1051600013F803463B4A13603A4B1B68002B03D1EC
:10517000FF2139481CF01AFE364B1968282300938A
:1051800030234FF40262354823F076F80346002BB3
:1051900004D04FF4837130481CF008FED5233B72D5
:1051A0002F4B3B602F4B7B602F4B3B612F4BFB60AA
:1051B0002F4B7B613B4619462E48FEF7ABFE03465C
:1051C000002B05D06FF007033FE0192017F020FFF8
:1051D00042F21071D5201BF0D3FB0346002BF4D113
:1051E000244B012283F825202248FFF7F7FE0346CF
:1051F000002B0FD0204BBB61B869FBF74BF8014681
:105200000223009301230022B8691FF0D5FA6FF042
:10521000C7031AE0194B1C68022022F083FC0346E6
:10522000E362E36A002B0FD1154BFB61F869FBF7D2
:1052300031F801460223009301230022F8691FF090
:10524000BBFA6FF0C70300E0002318462437BD46C1
:1052500090BD00BFF40B0020481D0308D00B0020B8
:10526000E9080208310902081D0A0208B909020802
:10527000650C0208980B00206C1D0308CC0B002065
:10528000841D030880B584B002AF124B93F825301B
:10529000002B19D00F4B002283F825200D48FFF773
:1052A0009DFE0346002B0FD00B4B7B607868FAF70E
:1052B000F1FF0146022300930123002278681FF0CA
:1052C0007BFA6FF0C70300E0002318460837BD469D
:1052D00080BD00BF980B00206C1D030890B58BB0FB
:1052E00002AF404B1B68002B43D14FF4026022F009
:1052F0004BFF03463B4A13603A4B1B68002B04D11B
:105300004FF4AE7138481CF051FD364B1968282314
:10531000009330234FF40262344822F0ADFF03467D
:10532000002B04D040F263112F481CF03FFDD52321
:105330003B722F4B3B602F4B7B602F4B3B612F4BC6
:10534000FB602F4B7B613B4619462E48FEF7E2FD82
:105350000346002B05D06FF007033FE0192017F03C
:1053600057FE42F21071D5201BF00AFB0346002BBA
:10537000F4D1244B012283F826202248FFF72EFE89
:105380000346002B0FD0204BBB61B869FAF782FFB0
:1053900001460223009301230022B8691FF00CFA92
:1053A0006FF0C7031AE0194B1C680A2022F0BAFB01
:1053B00003462363236B002B0FD1154BFB61F86968
:1053C000FAF768FF01460223009301230022F869DF
:1053D0001FF0F2F96FF0C70300E0002318462437EE
:1053E000BD4690BDF80B0020481D0308D00B0020DF
:1053F000E9080208310902081D0A0208B909020871
:10540000650C0208980B00206C1D0308CC0B0020D3
:10541000B01D030880B584B002AF124B93F826305C
:10542000002B19D00F4B002283F826200D48FFF7E0
:10543000D5FD0346002B0FD00B4B7B607868FAF745
:1054400029FF0146022300930123002278681FF000
:10545000B3F96FF0C70300E0002318460837BD46D4
:1054600080BD00BF980B00206C1D030880B500AF05
:105470000C4B1B68002B12D00A4B1B6893F825308D
:10548000002B0CD0074B1B6893F82430002B06D060
:10549000054B01225A7006210448FFF73BFC00230C
:1054A000184680BDCC0B0020EC2D0A20B00B00204C
:1054B00080B500AF0C4B1B68002B12D00A4B1B6849
:1054C00093F82530002B0CD0074B1B6893F8243041
:1054D000002B06D0054B00225A7000210448FFF72C
:1054E00019FC0023184680BDCC0B0020EC2D0A20AF
:1054F000B00B002080B500AF0C4B1B68002B12D006
:105500000A4B1B6893F82430002B0CD0074B1B6808
:1055100093F82630002B06D0054B01229A70062105
:105520000448FFF7F7FB0023184680BDCC0B002092
:10553000EC2D0A20B00B002080B500AF0C4B1B688F
:10554000002B12D00A4B1B6893F82430002B0CD090
:10555000074B1B6893F82630002B06D0054B002222
:105560009A7000210448FFF7D5FB0023184680BD40
:10557000CC0B0020EC2D0A20B00B002080B582B0AF
:1055800000AF1A4B5B78002B03D1184B9B78002B94
:1055900026D000237B60164822F0CAFE78607B6824
:1055A000002B04D140F2FD1112481CF0FFFB7B6878
:1055B00000221A607B6802229A607B6800225A608F
:1055C0000D4B186840F601030222796822F038FB7F
:1055D0000346012B04D040F2092106481CF0E6FBEB
:1055E000002318460837BD4680BD00BFEC2D0A20B9
:1055F000D00B0020481D0308482D0A2080B58AB032
:1056000000AF786000237B6200233B81704B5B78A6
:10561000002B04D06E4B9B78002B40F0C6803423C7
:105620007B8100233B6207F1080319466948FFF7B5
:10563000FBFA3B89684AA2FB03235B087B81644B2E
:105640005B78002B04D0654B1B68DB6A7B6203E050
:10565000624B1B681B6B7B620023FB6126E006220A
:105660005F495C48FFF7ECF90346002B04D040F299
:1056700052215C481CF09AFB594BB3F900105A4A6E
:10568000FB6922F81310564BB3F90210564AFB6916
:10569000343322F81310524BB3F90410524AFB6909
:1056A000683322F81310FB690133FB617B89FA69C7
:1056B0009A42D4DB3B891A464C4B1B6813444B4A35
:1056C00013604A4B1B681946786A19F0C5FA0346FD
:1056D000B3F1FF3F04D140F2752142481CF066FB54
:1056E0007A8913465B0013441946786A19F0B4FAB4
:1056F0000346B3F1FF3F04D140F27A2139481CF050
:1057000055FB00233B6213E0374A3B6A32F9133002
:105710001946786A19F0A0FA0346B3F1FF3F04D1A5
:1057200040F282212F481CF041FB3B6A01333B626F
:105730007B893A6A9A42E7DB00233B6214E02A4AFB
:105740003B6A343332F913301946786A19F084FA17
:105750000346B3F1FF3F04D140F28A2121481CF0F7
:1057600025FB3B6A01333B627B893A6A9A42E6DB5E
:1057700000233B6214E01C4A3B6A683332F9133061
:105780001946786A19F068FA0346B3F1FF3F04D16D
:1057900040F2922113481CF009FB3B6A01333B6243
:1057A0007B893A6A9A42E6DB71E13423FB8200236B
:1057B000BB6107F1080319460648FFF735FA3B8934
:1057C000054AA2FB03239B08FB820023BB615AE02E
:1057D000EC2D0A20B00B0020ABAAAAAACC0B00200B
:1057E000E00B0020481D030828090020EC0B0020D6
:1057F0000622A949A948FFF723F90346002B04D044
:1058000040F2A521A6481CF0D1FAA34BB3F9001031
:10581000A44ABB6922F813109F4BB3F90210A14AA6
:10582000BB69343322F813109B4BB3F904109D4A23
:10583000BB69683322F81310062297499748FFF78F
:10584000FFF80346002B04D040F2AE2194481CF030
:10585000ADFA914BB3F90010934ABB6922F81310CB
:105860008D4BB3F90210904ABB69343322F8131000
:10587000894BB3F904108C4ABB69683322F81310C2
:10588000BB690133BB61FB8ABA699A42B0DB874BC3
:105890001B68DB6A3B61854B1B681B6BFB603B89AC
:1058A0005B089BB21A46824B1B681344804A136004
:1058B0007F4B1B681946386919F0CEF90346B3F1DE
:1058C000FF3F04D140F2D22175481CF06FFAFA8AEA
:1058D00013465B0013441946386919F0BDF90346B5
:1058E000B3F1FF3F04D140F2D7216D481CF05EFABE
:1058F0000023BB6113E06C4ABB6932F913301946CF
:10590000386919F0A9F90346B3F1FF3F04D14FF408
:10591000387163481CF04AFABB690133BB61FB8AEA
:10592000BA699A42E7DB0023BB6114E05E4ABB69B7
:10593000343332F913301946386919F08DF90346BA
:10594000B3F1FF3F04D14FF43A7155481CF02EFAE1
:10595000BB690133BB61FB8ABA699A42E6DB00236B
:10596000BB6114E0504ABB69683332F91330194601
:10597000386919F071F90346B3F1FF3F04D14FF4D0
:105980003C7147481CF012FABB690133BB61FB8ACA
:10599000BA699A42E6DB3B895B089BB21A46454BE3
:1059A0001B681344434A1360424B1B681946F8684E
:1059B00019F052F90346B3F1FF3F04D140F2FA2146
:1059C00037481CF0F3F9FA8A13465B001344194672
:1059D000F86819F041F90346B3F1FF3F04D140F2F2
:1059E000FF212F481CF0E2F90023BB6113E02D4A90
:1059F000BB6932F913301946F86819F02DF90346DE
:105A0000B3F1FF3F04D14FF4427125481CF0CEF9A9
:105A1000BB690133BB61FB8ABA699A42E7DB0023A9
:105A2000BB6114E01F4ABB69343332F913301946A5
:105A3000F86819F011F90346B3F1FF3F04D14FF4B0
:105A4000447117481CF0B2F9BB690133BB61FB8A92
:105A5000BA699A42E6DB0023BB6114E0114ABB69D4
:105A6000683332F913301946F86819F0F5F803462F
:105A7000B3F1FF3F04D14FF4467109481CF096F989
:105A8000BB690133BB61FB8ABA699A42E6DB00233A
:105A900018462837BD4680BDE00B0020B00B002023
:105AA000481D0308600A002028090020CC0B0020B4
:105AB000EC0B0020E80B002080B584B000AF7860CC
:105AC000396007F10B0319467868FEF764FCF8604B
:105AD000FB68002B01D0FB680DE0FB7A002BF0D0B7
